{
  "contractName": "Authors",
  "abi": [
    {
      "constant": true,
      "inputs": [
        {
          "name": "",
          "type": "bytes32"
        }
      ],
      "name": "authorAddresses",
      "outputs": [
        {
          "name": "",
          "type": "address"
        }
      ],
      "payable": false,
      "stateMutability": "view",
      "type": "function"
    },
    {
      "constant": true,
      "inputs": [
        {
          "name": "",
          "type": "address"
        }
      ],
      "name": "authors",
      "outputs": [
        {
          "name": "firstName",
          "type": "string"
        },
        {
          "name": "lastName",
          "type": "string"
        },
        {
          "name": "fullName",
          "type": "string"
        },
        {
          "name": "email",
          "type": "string"
        },
        {
          "name": "registered",
          "type": "bool"
        }
      ],
      "payable": false,
      "stateMutability": "view",
      "type": "function"
    },
    {
      "constant": false,
      "inputs": [
        {
          "name": "_firstName",
          "type": "string"
        },
        {
          "name": "_lastName",
          "type": "string"
        },
        {
          "name": "_email",
          "type": "string"
        }
      ],
      "name": "newAuthor",
      "outputs": [],
      "payable": false,
      "stateMutability": "nonpayable",
      "type": "function"
    }
  ],
  "bytecode": "0x6060604052341561000f57600080fd5b610e288061001e6000396000f300606060405260043610610057576000357c0100000000000000000000000000000000000000000000000000000000900463ffffffff1680632c1f96ef1461005c5780636b68c982146100c3578063bf9c500114610119575b600080fd5b341561006757600080fd5b61008160048080356000191690602001909190505061038e565b604051808273ffffffffffffffffffffffffffffffffffffffff1673ffffffffffffffffffffffffffffffffffffffff16815260200191505060405180910390f35b34156100ce57600080fd5b61011760048080359060200190820180359060200191909192908035906020019082018035906020019190919290803590602001908201803590602001919091929050506103c1565b005b341561012457600080fd5b610150600480803573ffffffffffffffffffffffffffffffffffffffff1690602001909190505061071a565b60405180806020018060200180602001806020018615151515815260200185810385528a8181546001816001161561010002031660029004815260200191508054600181600116156101000203166002900480156101ef5780601f106101c4576101008083540402835291602001916101ef565b820191906000526020600020905b8154815290600101906020018083116101d257829003601f168201915b50508581038452898181546001816001161561010002031660029004815260200191508054600181600116156101000203166002900480156102725780601f1061024757610100808354040283529160200191610272565b820191906000526020600020905b81548152906001019060200180831161025557829003601f168201915b50508581038352888181546001816001161561010002031660029004815260200191508054600181600116156101000203166002900480156102f55780601f106102ca576101008083540402835291602001916102f5565b820191906000526020600020905b8154815290600101906020018083116102d857829003601f168201915b50508581038252878181546001816001161561010002031660029004815260200191508054600181600116156101000203166002900480156103785780601f1061034d57610100808354040283529160200191610378565b820191906000526020600020905b81548152906001019060200180831161035b57829003601f168201915b5050995050505050505050505060405180910390f35b60016020528060005260406000206000915054906101000a900473ffffffffffffffffffffffffffffffffffffffff1681565b85856000803373ffffffffffffffffffffffffffffffffffffffff1673ffffffffffffffffffffffffffffffffffffffff1681526020019081526020016000206000019190610411929190610caf565b5083836000803373ffffffffffffffffffffffffffffffffffffffff1673ffffffffffffffffffffffffffffffffffffffff1681526020019081526020016000206001019190610462929190610caf565b506104dd84848080601f016020809104026020016040519081016040528093929190818152602001838380828437820191505050505050600188888080601f0160208091040260200160405190810160405280939291908181526020018383808284378201915050505050506107599092919063ffffffff16565b6000803373ffffffffffffffffffffffffffffffffffffffff1673ffffffffffffffffffffffffffffffffffffffff1681526020019081526020016000206002019080519060200190610531929190610d2f565b5081816000803373ffffffffffffffffffffffffffffffffffffffff1673ffffffffffffffffffffffffffffffffffffffff1681526020019081526020016000206003019190610582929190610caf565b5060016000803373ffffffffffffffffffffffffffffffffffffffff1673ffffffffffffffffffffffffffffffffffffffff16815260200190815260200160002060040160006101000a81548160ff021916908315150217905550336001600061065c87878080601f01602080910402602001604051908101604052809392919081815260200183838082843782019150505050505060018b8b8080601f0160208091040260200160405190810160405280939291908181526020018383808284378201915050505050506107599092919063ffffffff16565b6040518082805190602001908083835b602083101515610691578051825260208201915060208101905060208303925061066c565b6001836020036101000a03801982511681845116808217855250505050505090500191505060405180910390206000191660001916815260200190815260200160002060006101000a81548173ffffffffffffffffffffffffffffffffffffffff021916908373ffffffffffffffffffffffffffffffffffffffff160217905550505050505050565b600060205280600052604060002060009150905080600001908060010190806002019080600301908060040160009054906101000a900460ff16905085565b610761610daf565b610769610daf565b610771610dc3565b610779610dc3565b610781610dc3565b610789610daf565b610791610dc3565b6000808915610a3e576040805190810160405280600181526020017f200000000000000000000000000000000000000000000000000000000000000081525097508796508b95508a945084518751875101016040518059106107f05750595b9080825280601f01601f1916602001820160405250935083925060009150600090505b85518110156108c657858181518110151561082a57fe5b9060200101517f010000000000000000000000000000000000000000000000000000000000000090047f010000000000000000000000000000000000000000000000000000000000000002838380600101945081518110151561088957fe5b9060200101907effffffffffffffffffffffffffffffffffffffffffffffffffffffffffffff1916908160001a9053508080600101915050610813565b600090505b865181101561097e5786818151811015156108e257fe5b9060200101517f010000000000000000000000000000000000000000000000000000000000000090047f010000000000000000000000000000000000000000000000000000000000000002838380600101945081518110151561094157fe5b9060200101907effffffffffffffffffffffffffffffffffffffffffffffffffffffffffffff1916908160001a90535080806001019150506108cb565b600090505b8451811015610a3657848181518110151561099a57fe5b9060200101517f010000000000000000000000000000000000000000000000000000000000000090047f01000000000000000000000000000000000000000000000000000000000000000283838060010194508151811015156109f957fe5b9060200101907effffffffffffffffffffffffffffffffffffffffffffffffffffffffffffff1916908160001a9053508080600101915050610983565b829850610ca0565b8b95508a94508451865101604051805910610a565750595b9080825280601f01601f1916602001820160405250935083925060009150600090505b8551811015610b2c578581815181101515610a9057fe5b9060200101517f010000000000000000000000000000000000000000000000000000000000000090047f0100000000000000000000000000000000000000000000000000000000000000028383806001019450815181101515610aef57fe5b9060200101907effffffffffffffffffffffffffffffffffffffffffffffffffffffffffffff1916908160001a9053508080600101915050610a79565b600090505b8651811015610be4578681815181101515610b4857fe5b9060200101517f010000000000000000000000000000000000000000000000000000000000000090047f0100000000000000000000000000000000000000000000000000000000000000028383806001019450815181101515610ba757fe5b9060200101907effffffffffffffffffffffffffffffffffffffffffffffffffffffffffffff1916908160001a9053508080600101915050610b31565b600090505b8451811015610c9c578481815181101515610c0057fe5b9060200101517f010000000000000000000000000000000000000000000000000000000000000090047f0100000000000000000000000000000000000000000000000000000000000000028383806001019450815181101515610c5f57fe5b9060200101907effffffffffffffffffffffffffffffffffffffffffffffffffffffffffffff1916908160001a9053508080600101915050610be9565b8298505b50505050505050509392505050565b828054600181600116156101000203166002900490600052602060002090601f016020900481019282601f10610cf057803560ff1916838001178555610d1e565b82800160010185558215610d1e579182015b82811115610d1d578235825591602001919060010190610d02565b5b509050610d2b9190610dd7565b5090565b828054600181600116156101000203166002900490600052602060002090601f016020900481019282601f10610d7057805160ff1916838001178555610d9e565b82800160010185558215610d9e579182015b82811115610d9d578251825591602001919060010190610d82565b5b509050610dab9190610dd7565b5090565b602060405190810160405280600081525090565b602060405190810160405280600081525090565b610df991905b80821115610df5576000816000905550600101610ddd565b5090565b905600a165627a7a7230582010eb80814abaf5212bfe0155ee9e563b8661f8497c70361d9d0b5b444fdb23e60029",
  "source": "pragma solidity ^0.4.19;\n\nimport './libraries/strings.sol';\n\ncontract Authors {\n\n  using strings for string;\n\n  struct Author {\n    string firstName;\n    string lastName;\n    string fullName;\n    string email;\n    bool registered;\n  }\n\n  mapping (address => Author) public authors;\n  mapping(bytes32  => address) public authorAddresses;\n\n  function newAuthor(string _firstName, string _lastName, string _email) external {\n    authors[msg.sender].firstName = _firstName;\n    authors[msg.sender].lastName = _lastName;\n    authors[msg.sender].fullName = _firstName.strConcat(_lastName, true);\n    authors[msg.sender].email = _email;\n    authors[msg.sender].registered = true;\n    authorAddresses[keccak256(_firstName.strConcat(_lastName, true))] = msg.sender;\n  }\n}\n",
  "sourcePath": "/home/altstreet/Documents/ethreader/contracts/authors.sol",
  "compiler": {
    "name": "solc",
    "version": "0.4.19+commit.c4cbbb05.Emscripten.clang"
  },
  "schemaVersion": "2.0.0",
  "updatedAt": "2018-03-26T14:53:06.942Z"
}