{
  "contractName": "Authors",
  "abi": [
    {
      "constant": true,
      "inputs": [
        {
          "name": "",
          "type": "bytes32"
        }
      ],
      "name": "authorAddresses",
      "outputs": [
        {
          "name": "",
          "type": "address"
        }
      ],
      "payable": false,
      "stateMutability": "view",
      "type": "function"
    },
    {
      "constant": true,
      "inputs": [
        {
          "name": "",
          "type": "address"
        }
      ],
      "name": "authors",
      "outputs": [
        {
          "name": "name",
          "type": "string"
        },
        {
          "name": "email",
          "type": "string"
        },
        {
          "name": "registered",
          "type": "bool"
        }
      ],
      "payable": false,
      "stateMutability": "view",
      "type": "function"
    },
    {
      "constant": false,
      "inputs": [
        {
          "name": "_name",
          "type": "string"
        },
        {
          "name": "_email",
          "type": "string"
        }
      ],
      "name": "newAuthor",
      "outputs": [],
      "payable": false,
      "stateMutability": "nonpayable",
      "type": "function"
    }
  ],
  "bytecode": "0x6060604052341561000f57600080fd5b6105f08061001e6000396000f300606060405260043610610057576000357c0100000000000000000000000000000000000000000000000000000000900463ffffffff1680632c1f96ef1461005c5780637d3f5caf146100c3578063bf9c500114610105575b600080fd5b341561006757600080fd5b610081600480803560001916906020019091905050610268565b604051808273ffffffffffffffffffffffffffffffffffffffff1673ffffffffffffffffffffffffffffffffffffffff16815260200191505060405180910390f35b34156100ce57600080fd5b61010360048080359060200190820180359060200191909192908035906020019082018035906020019190919290505061029b565b005b341561011057600080fd5b61013c600480803573ffffffffffffffffffffffffffffffffffffffff169060200190919050506104ea565b604051808060200180602001841515151581526020018381038352868181546001816001161561010002031660029004815260200191508054600181600116156101000203166002900480156101d35780601f106101a8576101008083540402835291602001916101d3565b820191906000526020600020905b8154815290600101906020018083116101b657829003601f168201915b50508381038252858181546001816001161561010002031660029004815260200191508054600181600116156101000203166002900480156102565780601f1061022b57610100808354040283529160200191610256565b820191906000526020600020905b81548152906001019060200180831161023957829003601f168201915b50509550505050505060405180910390f35b60016020528060005260406000206000915054906101000a900473ffffffffffffffffffffffffffffffffffffffff1681565b6000803373ffffffffffffffffffffffffffffffffffffffff1673ffffffffffffffffffffffffffffffffffffffff16815260200190815260200160002060020160009054906101000a900460ff161515156102f657600080fd5b60006001600086866040518083838082843782019150509250505060405180910390206000191660001916815260200190815260200160002060009054906101000a900473ffffffffffffffffffffffffffffffffffffffff1673ffffffffffffffffffffffffffffffffffffffff1614151561037257600080fd5b83836000803373ffffffffffffffffffffffffffffffffffffffff1673ffffffffffffffffffffffffffffffffffffffff16815260200190815260200160002060000191906103c292919061051f565b5081816000803373ffffffffffffffffffffffffffffffffffffffff1673ffffffffffffffffffffffffffffffffffffffff168152602001908152602001600020600101919061041392919061051f565b5060016000803373ffffffffffffffffffffffffffffffffffffffff1673ffffffffffffffffffffffffffffffffffffffff16815260200190815260200160002060020160006101000a81548160ff021916908315150217905550336001600086866040518083838082843782019150509250505060405180910390206000191660001916815260200190815260200160002060006101000a81548173ffffffffffffffffffffffffffffffffffffffff021916908373ffffffffffffffffffffffffffffffffffffffff16021790555050505050565b6000602052806000526040600020600091509050806000019080600101908060020160009054906101000a900460ff16905083565b828054600181600116156101000203166002900490600052602060002090601f016020900481019282601f1061056057803560ff191683800117855561058e565b8280016001018555821561058e579182015b8281111561058d578235825591602001919060010190610572565b5b50905061059b919061059f565b5090565b6105c191905b808211156105bd5760008160009055506001016105a5565b5090565b905600a165627a7a723058200ea07ebc8c887e5629a108c902fcb9da32354b495672ff2fbecbec2bd17d25350029",
  "source": "pragma solidity ^0.4.19;\n\ncontract Authors {\n\n  struct Author {\n    string name;\n    string email;\n    bool registered;\n  }\n\n  mapping (address => Author) public authors;\n  mapping(bytes32  => address) public authorAddresses;\n\n  function newAuthor(string _name, string _email) external {\n    require(!authors[msg.sender].registered);\n    require(authorAddresses[keccak256(_name)] == 0x0);\n    authors[msg.sender].name = _name;\n    authors[msg.sender].email = _email;\n    authors[msg.sender].registered = true;\n    authorAddresses[keccak256(_name)] = msg.sender;\n  }\n}\n",
  "sourcePath": "/home/altstreet/Documents/ethreader/contracts/authors.sol",
  "compiler": {
    "name": "solc",
    "version": "0.4.19+commit.c4cbbb05.Emscripten.clang"
  },
  "schemaVersion": "2.0.0",
  "updatedAt": "2018-04-15T21:15:56.503Z"
}