{
  "contractName": "Authors",
  "abi": [
    {
      "constant": true,
      "inputs": [
        {
          "name": "",
          "type": "address"
        }
      ],
      "name": "authors",
      "outputs": [
        {
          "name": "firstName",
          "type": "string"
        },
        {
          "name": "lastName",
          "type": "string"
        },
        {
          "name": "fullName",
          "type": "string"
        },
        {
          "name": "email",
          "type": "string"
        },
        {
          "name": "registered",
          "type": "bool"
        }
      ],
      "payable": false,
      "stateMutability": "view",
      "type": "function"
    },
    {
      "constant": false,
      "inputs": [
        {
          "name": "_firstName",
          "type": "string"
        },
        {
          "name": "_lastName",
          "type": "string"
        },
        {
          "name": "_email",
          "type": "string"
        }
      ],
      "name": "newAuthor",
      "outputs": [],
      "payable": false,
      "stateMutability": "nonpayable",
      "type": "function"
    }
  ],
  "bytecode": "0x6060604052341561000f57600080fd5b610c4e8061001e6000396000f30060606040526004361061004c576000357c0100000000000000000000000000000000000000000000000000000000900463ffffffff1680636b68c98214610051578063bf9c5001146100a7575b600080fd5b341561005c57600080fd5b6100a5600480803590602001908201803590602001919091929080359060200190820180359060200191909192908035906020019082018035906020019190919290505061031c565b005b34156100b257600080fd5b6100de600480803573ffffffffffffffffffffffffffffffffffffffff16906020019091905050610540565b60405180806020018060200180602001806020018615151515815260200185810385528a81815460018160011615610100020316600290048152602001915080546001816001161561010002031660029004801561017d5780601f106101525761010080835404028352916020019161017d565b820191906000526020600020905b81548152906001019060200180831161016057829003601f168201915b50508581038452898181546001816001161561010002031660029004815260200191508054600181600116156101000203166002900480156102005780601f106101d557610100808354040283529160200191610200565b820191906000526020600020905b8154815290600101906020018083116101e357829003601f168201915b50508581038352888181546001816001161561010002031660029004815260200191508054600181600116156101000203166002900480156102835780601f1061025857610100808354040283529160200191610283565b820191906000526020600020905b81548152906001019060200180831161026657829003601f168201915b50508581038252878181546001816001161561010002031660029004815260200191508054600181600116156101000203166002900480156103065780601f106102db57610100808354040283529160200191610306565b820191906000526020600020905b8154815290600101906020018083116102e957829003601f168201915b5050995050505050505050505060405180910390f35b85856000803373ffffffffffffffffffffffffffffffffffffffff1673ffffffffffffffffffffffffffffffffffffffff168152602001908152602001600020600001919061036c929190610ad5565b5083836000803373ffffffffffffffffffffffffffffffffffffffff1673ffffffffffffffffffffffffffffffffffffffff16815260200190815260200160002060010191906103bd929190610ad5565b5061043884848080601f016020809104026020016040519081016040528093929190818152602001838380828437820191505050505050600188888080601f01602080910402602001604051908101604052809392919081815260200183838082843782019150505050505061057f9092919063ffffffff16565b6000803373ffffffffffffffffffffffffffffffffffffffff1673ffffffffffffffffffffffffffffffffffffffff168152602001908152602001600020600201908051906020019061048c929190610b55565b5081816000803373ffffffffffffffffffffffffffffffffffffffff1673ffffffffffffffffffffffffffffffffffffffff16815260200190815260200160002060030191906104dd929190610ad5565b5060016000803373ffffffffffffffffffffffffffffffffffffffff1673ffffffffffffffffffffffffffffffffffffffff16815260200190815260200160002060040160006101000a81548160ff021916908315150217905550505050505050565b600060205280600052604060002060009150905080600001908060010190806002019080600301908060040160009054906101000a900460ff16905085565b610587610bd5565b61058f610bd5565b610597610be9565b61059f610be9565b6105a7610be9565b6105af610bd5565b6105b7610be9565b6000808915610864576040805190810160405280600181526020017f200000000000000000000000000000000000000000000000000000000000000081525097508796508b95508a945084518751875101016040518059106106165750595b9080825280601f01601f1916602001820160405250935083925060009150600090505b85518110156106ec57858181518110151561065057fe5b9060200101517f010000000000000000000000000000000000000000000000000000000000000090047f01000000000000000000000000000000000000000000000000000000000000000283838060010194508151811015156106af57fe5b9060200101907effffffffffffffffffffffffffffffffffffffffffffffffffffffffffffff1916908160001a9053508080600101915050610639565b600090505b86518110156107a457868181518110151561070857fe5b9060200101517f010000000000000000000000000000000000000000000000000000000000000090047f010000000000000000000000000000000000000000000000000000000000000002838380600101945081518110151561076757fe5b9060200101907effffffffffffffffffffffffffffffffffffffffffffffffffffffffffffff1916908160001a90535080806001019150506106f1565b600090505b845181101561085c5784818151811015156107c057fe5b9060200101517f010000000000000000000000000000000000000000000000000000000000000090047f010000000000000000000000000000000000000000000000000000000000000002838380600101945081518110151561081f57fe5b9060200101907effffffffffffffffffffffffffffffffffffffffffffffffffffffffffffff1916908160001a90535080806001019150506107a9565b829850610ac6565b8b95508a9450845186510160405180591061087c5750595b9080825280601f01601f1916602001820160405250935083925060009150600090505b85518110156109525785818151811015156108b657fe5b9060200101517f010000000000000000000000000000000000000000000000000000000000000090047f010000000000000000000000000000000000000000000000000000000000000002838380600101945081518110151561091557fe5b9060200101907effffffffffffffffffffffffffffffffffffffffffffffffffffffffffffff1916908160001a905350808060010191505061089f565b600090505b8651811015610a0a57868181518110151561096e57fe5b9060200101517f010000000000000000000000000000000000000000000000000000000000000090047f01000000000000000000000000000000000000000000000000000000000000000283838060010194508151811015156109cd57fe5b9060200101907effffffffffffffffffffffffffffffffffffffffffffffffffffffffffffff1916908160001a9053508080600101915050610957565b600090505b8451811015610ac2578481815181101515610a2657fe5b9060200101517f010000000000000000000000000000000000000000000000000000000000000090047f0100000000000000000000000000000000000000000000000000000000000000028383806001019450815181101515610a8557fe5b9060200101907effffffffffffffffffffffffffffffffffffffffffffffffffffffffffffff1916908160001a9053508080600101915050610a0f565b8298505b50505050505050509392505050565b828054600181600116156101000203166002900490600052602060002090601f016020900481019282601f10610b1657803560ff1916838001178555610b44565b82800160010185558215610b44579182015b82811115610b43578235825591602001919060010190610b28565b5b509050610b519190610bfd565b5090565b828054600181600116156101000203166002900490600052602060002090601f016020900481019282601f10610b9657805160ff1916838001178555610bc4565b82800160010185558215610bc4579182015b82811115610bc3578251825591602001919060010190610ba8565b5b509050610bd19190610bfd565b5090565b602060405190810160405280600081525090565b602060405190810160405280600081525090565b610c1f91905b80821115610c1b576000816000905550600101610c03565b5090565b905600a165627a7a723058209b2e5211c53db81e60e358dd6bfc6df99f60a85efddbbba1aad621178dd2893e0029",
  "source": "pragma solidity ^0.4.19;\n\nimport './libraries/strings.sol';\n\ncontract Authors {\n\n  using strings for string;\n\n  struct Author {\n    string firstName;\n    string lastName;\n    string fullName;\n    string email;\n    bool registered;\n  }\n\n  mapping (address => Author) public authors;\n\n  function newAuthor(string _firstName, string _lastName, string _email) external {\n    authors[msg.sender].firstName = _firstName;\n    authors[msg.sender].lastName = _lastName;\n    authors[msg.sender].fullName = _firstName.strConcat(_lastName, true);\n    authors[msg.sender].email = _email;\n    authors[msg.sender].registered = true;\n  }\n}\n",
  "sourcePath": "/home/altstreet/Documents/ethreader/contracts/authors.sol",
  "compiler": {
    "name": "solc",
    "version": "0.4.19+commit.c4cbbb05.Emscripten.clang"
  },
  "schemaVersion": "2.0.0",
  "updatedAt": "2018-03-26T03:38:39.419Z"
}