{
  "contractName": "Authors",
  "abi": [
    {
      "constant": true,
      "inputs": [
        {
          "name": "",
          "type": "bytes32"
        }
      ],
      "name": "authorAddresses",
      "outputs": [
        {
          "name": "",
          "type": "address"
        }
      ],
      "payable": false,
      "stateMutability": "view",
      "type": "function"
    },
    {
      "constant": true,
      "inputs": [
        {
          "name": "",
          "type": "address"
        }
      ],
      "name": "authors",
      "outputs": [
        {
          "name": "name",
          "type": "string"
        },
        {
          "name": "email",
          "type": "string"
        },
        {
          "name": "registered",
          "type": "bool"
        }
      ],
      "payable": false,
      "stateMutability": "view",
      "type": "function"
    },
    {
      "constant": false,
      "inputs": [
        {
          "name": "_firstName",
          "type": "string"
        },
        {
          "name": "_lastName",
          "type": "string"
        },
        {
          "name": "_email",
          "type": "string"
        }
      ],
      "name": "newAuthor",
      "outputs": [],
      "payable": false,
      "stateMutability": "nonpayable",
      "type": "function"
    }
  ],
  "bytecode": "0x6060604052341561000f57600080fd5b610c6a8061001e6000396000f300606060405260043610610057576000357c0100000000000000000000000000000000000000000000000000000000900463ffffffff1680632c1f96ef1461005c5780636b68c982146100c3578063bf9c500114610119575b600080fd5b341561006757600080fd5b61008160048080356000191690602001909190505061027c565b604051808273ffffffffffffffffffffffffffffffffffffffff1673ffffffffffffffffffffffffffffffffffffffff16815260200191505060405180910390f35b34156100ce57600080fd5b61011760048080359060200190820180359060200191909192908035906020019082018035906020019190919290803590602001908201803590602001919091929050506102af565b005b341561012457600080fd5b610150600480803573ffffffffffffffffffffffffffffffffffffffff16906020019091905050610566565b604051808060200180602001841515151581526020018381038352868181546001816001161561010002031660029004815260200191508054600181600116156101000203166002900480156101e75780601f106101bc576101008083540402835291602001916101e7565b820191906000526020600020905b8154815290600101906020018083116101ca57829003601f168201915b505083810382528581815460018160011615610100020316600290048152602001915080546001816001161561010002031660029004801561026a5780601f1061023f5761010080835404028352916020019161026a565b820191906000526020600020905b81548152906001019060200180831161024d57829003601f168201915b50509550505050505060405180910390f35b60016020528060005260406000206000915054906101000a900473ffffffffffffffffffffffffffffffffffffffff1681565b61032984848080601f016020809104026020016040519081016040528093929190818152602001838380828437820191505050505050600188888080601f01602080910402602001604051908101604052809392919081815260200183838082843782019150505050505061059b9092919063ffffffff16565b6000803373ffffffffffffffffffffffffffffffffffffffff1673ffffffffffffffffffffffffffffffffffffffff168152602001908152602001600020600001908051906020019061037d929190610af1565b5081816000803373ffffffffffffffffffffffffffffffffffffffff1673ffffffffffffffffffffffffffffffffffffffff16815260200190815260200160002060010191906103ce929190610b71565b5060016000803373ffffffffffffffffffffffffffffffffffffffff1673ffffffffffffffffffffffffffffffffffffffff16815260200190815260200160002060020160006101000a81548160ff02191690831515021790555033600160006104a887878080601f01602080910402602001604051908101604052809392919081815260200183838082843782019150505050505060018b8b8080601f01602080910402602001604051908101604052809392919081815260200183838082843782019150505050505061059b9092919063ffffffff16565b6040518082805190602001908083835b6020831015156104dd57805182526020820191506020810190506020830392506104b8565b6001836020036101000a03801982511681845116808217855250505050505090500191505060405180910390206000191660001916815260200190815260200160002060006101000a81548173ffffffffffffffffffffffffffffffffffffffff021916908373ffffffffffffffffffffffffffffffffffffffff160217905550505050505050565b6000602052806000526040600020600091509050806000019080600101908060020160009054906101000a900460ff16905083565b6105a3610bf1565b6105ab610bf1565b6105b3610c05565b6105bb610c05565b6105c3610c05565b6105cb610bf1565b6105d3610c05565b6000808915610880576040805190810160405280600181526020017f200000000000000000000000000000000000000000000000000000000000000081525097508796508b95508a945084518751875101016040518059106106325750595b9080825280601f01601f1916602001820160405250935083925060009150600090505b855181101561070857858181518110151561066c57fe5b9060200101517f010000000000000000000000000000000000000000000000000000000000000090047f01000000000000000000000000000000000000000000000000000000000000000283838060010194508151811015156106cb57fe5b9060200101907effffffffffffffffffffffffffffffffffffffffffffffffffffffffffffff1916908160001a9053508080600101915050610655565b600090505b86518110156107c057868181518110151561072457fe5b9060200101517f010000000000000000000000000000000000000000000000000000000000000090047f010000000000000000000000000000000000000000000000000000000000000002838380600101945081518110151561078357fe5b9060200101907effffffffffffffffffffffffffffffffffffffffffffffffffffffffffffff1916908160001a905350808060010191505061070d565b600090505b84518110156108785784818151811015156107dc57fe5b9060200101517f010000000000000000000000000000000000000000000000000000000000000090047f010000000000000000000000000000000000000000000000000000000000000002838380600101945081518110151561083b57fe5b9060200101907effffffffffffffffffffffffffffffffffffffffffffffffffffffffffffff1916908160001a90535080806001019150506107c5565b829850610ae2565b8b95508a945084518651016040518059106108985750595b9080825280601f01601f1916602001820160405250935083925060009150600090505b855181101561096e5785818151811015156108d257fe5b9060200101517f010000000000000000000000000000000000000000000000000000000000000090047f010000000000000000000000000000000000000000000000000000000000000002838380600101945081518110151561093157fe5b9060200101907effffffffffffffffffffffffffffffffffffffffffffffffffffffffffffff1916908160001a90535080806001019150506108bb565b600090505b8651811015610a2657868181518110151561098a57fe5b9060200101517f010000000000000000000000000000000000000000000000000000000000000090047f01000000000000000000000000000000000000000000000000000000000000000283838060010194508151811015156109e957fe5b9060200101907effffffffffffffffffffffffffffffffffffffffffffffffffffffffffffff1916908160001a9053508080600101915050610973565b600090505b8451811015610ade578481815181101515610a4257fe5b9060200101517f010000000000000000000000000000000000000000000000000000000000000090047f0100000000000000000000000000000000000000000000000000000000000000028383806001019450815181101515610aa157fe5b9060200101907effffffffffffffffffffffffffffffffffffffffffffffffffffffffffffff1916908160001a9053508080600101915050610a2b565b8298505b50505050505050509392505050565b828054600181600116156101000203166002900490600052602060002090601f016020900481019282601f10610b3257805160ff1916838001178555610b60565b82800160010185558215610b60579182015b82811115610b5f578251825591602001919060010190610b44565b5b509050610b6d9190610c19565b5090565b828054600181600116156101000203166002900490600052602060002090601f016020900481019282601f10610bb257803560ff1916838001178555610be0565b82800160010185558215610be0579182015b82811115610bdf578235825591602001919060010190610bc4565b5b509050610bed9190610c19565b5090565b602060405190810160405280600081525090565b602060405190810160405280600081525090565b610c3b91905b80821115610c37576000816000905550600101610c1f565b5090565b905600a165627a7a72305820ef8f6880fb107d8e714c25cb71524b9a40e8fd01fe7274463b4061bdf96479740029",
  "source": "pragma solidity ^0.4.19;\n\nimport './libraries/strings.sol';\n\ncontract Authors {\n\n  using strings for string;\n\n  struct Author {\n    string name;\n    string email;\n    bool registered;\n  }\n\n  mapping (address => Author) public authors;\n  mapping(bytes32  => address) public authorAddresses;\n\n  function newAuthor(string _firstName, string _lastName, string _email) external {\n    authors[msg.sender].name = _firstName.strConcat(_lastName, true);\n    authors[msg.sender].email = _email;\n    authors[msg.sender].registered = true;\n    authorAddresses[keccak256(_firstName.strConcat(_lastName, true))] = msg.sender;\n  }\n}\n",
  "sourcePath": "/home/altstreet/Documents/ethreader/contracts/authors.sol",
  "compiler": {
    "name": "solc",
    "version": "0.4.19+commit.c4cbbb05.Emscripten.clang"
  },
  "schemaVersion": "2.0.0",
  "updatedAt": "2018-03-29T06:03:26.739Z"
}