{
  "contractName": "IPFS",
  "abi": [
    {
      "constant": true,
      "inputs": [
        {
          "name": "",
          "type": "bytes32"
        }
      ],
      "name": "authorAddresses",
      "outputs": [
        {
          "name": "",
          "type": "address"
        }
      ],
      "payable": false,
      "stateMutability": "view",
      "type": "function"
    },
    {
      "constant": true,
      "inputs": [
        {
          "name": "",
          "type": "uint256"
        }
      ],
      "name": "books",
      "outputs": [
        {
          "name": "authorAddress",
          "type": "address"
        },
        {
          "name": "title",
          "type": "string"
        },
        {
          "name": "bookHash",
          "type": "string"
        },
        {
          "name": "thumbHash",
          "type": "string"
        },
        {
          "name": "timestamp",
          "type": "uint256"
        },
        {
          "name": "IPPR",
          "type": "bytes32"
        }
      ],
      "payable": false,
      "stateMutability": "view",
      "type": "function"
    },
    {
      "constant": false,
      "inputs": [
        {
          "name": "_name",
          "type": "string"
        },
        {
          "name": "_email",
          "type": "string"
        }
      ],
      "name": "newAuthor",
      "outputs": [],
      "payable": false,
      "stateMutability": "nonpayable",
      "type": "function"
    },
    {
      "constant": true,
      "inputs": [
        {
          "name": "",
          "type": "uint256"
        }
      ],
      "name": "BookToOwner",
      "outputs": [
        {
          "name": "",
          "type": "address"
        }
      ],
      "payable": false,
      "stateMutability": "view",
      "type": "function"
    },
    {
      "constant": true,
      "inputs": [
        {
          "name": "",
          "type": "address"
        }
      ],
      "name": "authors",
      "outputs": [
        {
          "name": "name",
          "type": "string"
        },
        {
          "name": "email",
          "type": "string"
        },
        {
          "name": "registered",
          "type": "bool"
        }
      ],
      "payable": false,
      "stateMutability": "view",
      "type": "function"
    },
    {
      "constant": true,
      "inputs": [
        {
          "name": "",
          "type": "address"
        }
      ],
      "name": "OwnerBookCount",
      "outputs": [
        {
          "name": "",
          "type": "uint256"
        }
      ],
      "payable": false,
      "stateMutability": "view",
      "type": "function"
    },
    {
      "constant": false,
      "inputs": [
        {
          "name": "_bookHash",
          "type": "string"
        },
        {
          "name": "_title",
          "type": "string"
        },
        {
          "name": "_thumbHash",
          "type": "string"
        }
      ],
      "name": "addBook",
      "outputs": [],
      "payable": false,
      "stateMutability": "nonpayable",
      "type": "function"
    },
    {
      "constant": true,
      "inputs": [
        {
          "name": "_author",
          "type": "string"
        }
      ],
      "name": "getBooksByAuthorName",
      "outputs": [
        {
          "name": "",
          "type": "uint256[]"
        },
        {
          "name": "",
          "type": "string"
        },
        {
          "name": "",
          "type": "string"
        }
      ],
      "payable": false,
      "stateMutability": "view",
      "type": "function"
    },
    {
      "constant": true,
      "inputs": [
        {
          "name": "_title",
          "type": "string"
        }
      ],
      "name": "getBookByTitle",
      "outputs": [
        {
          "name": "author",
          "type": "address"
        },
        {
          "name": "title",
          "type": "string"
        },
        {
          "name": "bookHash",
          "type": "string"
        },
        {
          "name": "thumbHash",
          "type": "string"
        },
        {
          "name": "timestamp",
          "type": "uint256"
        },
        {
          "name": "IPPR",
          "type": "bytes32"
        }
      ],
      "payable": false,
      "stateMutability": "view",
      "type": "function"
    },
    {
      "constant": true,
      "inputs": [
        {
          "name": "_bookHash",
          "type": "string"
        }
      ],
      "name": "getBookByHash",
      "outputs": [
        {
          "name": "author",
          "type": "address"
        },
        {
          "name": "title",
          "type": "string"
        },
        {
          "name": "bookHash",
          "type": "string"
        },
        {
          "name": "thumbHash",
          "type": "string"
        },
        {
          "name": "timestamp",
          "type": "uint256"
        },
        {
          "name": "IPPR",
          "type": "bytes32"
        }
      ],
      "payable": false,
      "stateMutability": "view",
      "type": "function"
    }
  ],
  "bytecode": "0x6060604052341561000f57600080fd5b6120f18061001e6000396000f3006060604052600436106100a4576000357c0100000000000000000000000000000000000000000000000000000000900463ffffffff168063067a1a19146100a95780632c1f96ef1461027157806368744046146102d857806369c46826146104ec5780637d3f5caf146105425780639e08c566146105845780639f40eb59146105e7578063a11657ae146107af578063bf9c50011461090a578063c8bc8cae14610a6d575b600080fd5b34156100b457600080fd5b6100d560048080359060200190820180359060200191909192905050610aba565b604051808773ffffffffffffffffffffffffffffffffffffffff1673ffffffffffffffffffffffffffffffffffffffff1681526020018060200180602001806020018681526020018560001916600019168152602001848103845289818151815260200191508051906020019080838360005b83811015610163578082015181840152602081019050610148565b50505050905090810190601f1680156101905780820380516001836020036101000a031916815260200191505b50848103835288818151815260200191508051906020019080838360005b838110156101c95780820151818401526020810190506101ae565b50505050905090810190601f1680156101f65780820380516001836020036101000a031916815260200191505b50848103825287818151815260200191508051906020019080838360005b8381101561022f578082015181840152602081019050610214565b50505050905090810190601f16801561025c5780820380516001836020036101000a031916815260200191505b50995050505050505050505060405180910390f35b341561027c57600080fd5b610296600480803560001916906020019091905050610e7e565b604051808273ffffffffffffffffffffffffffffffffffffffff1673ffffffffffffffffffffffffffffffffffffffff16815260200191505060405180910390f35b34156102e357600080fd5b6102f96004808035906020019091905050610eb1565b604051808773ffffffffffffffffffffffffffffffffffffffff1673ffffffffffffffffffffffffffffffffffffffff16815260200180602001806020018060200186815260200185600019166000191681526020018481038452898181546001816001161561010002031660029004815260200191508054600181600116156101000203166002900480156103d05780601f106103a5576101008083540402835291602001916103d0565b820191906000526020600020905b8154815290600101906020018083116103b357829003601f168201915b50508481038352888181546001816001161561010002031660029004815260200191508054600181600116156101000203166002900480156104535780601f1061042857610100808354040283529160200191610453565b820191906000526020600020905b81548152906001019060200180831161043657829003601f168201915b50508481038252878181546001816001161561010002031660029004815260200191508054600181600116156101000203166002900480156104d65780601f106104ab576101008083540402835291602001916104d6565b820191906000526020600020905b8154815290600101906020018083116104b957829003601f168201915b5050995050505050505050505060405180910390f35b34156104f757600080fd5b6105406004808035906020019082018035906020019190919290803590602001908201803590602001919091929080359060200190820180359060200191909192905050610f19565b005b341561054d57600080fd5b610582600480803590602001908201803590602001919091929080359060200190820180359060200191909192905050611331565b005b341561058f57600080fd5b6105a56004808035906020019091905050611580565b604051808273ffffffffffffffffffffffffffffffffffffffff1673ffffffffffffffffffffffffffffffffffffffff16815260200191505060405180910390f35b34156105f257600080fd5b610613600480803590602001908201803590602001919091929050506115b3565b604051808773ffffffffffffffffffffffffffffffffffffffff1673ffffffffffffffffffffffffffffffffffffffff1681526020018060200180602001806020018681526020018560001916600019168152602001848103845289818151815260200191508051906020019080838360005b838110156106a1578082015181840152602081019050610686565b50505050905090810190601f1680156106ce5780820380516001836020036101000a031916815260200191505b50848103835288818151815260200191508051906020019080838360005b838110156107075780820151818401526020810190506106ec565b50505050905090810190601f1680156107345780820380516001836020036101000a031916815260200191505b50848103825287818151815260200191508051906020019080838360005b8381101561076d578082015181840152602081019050610752565b50505050905090810190601f16801561079a5780820380516001836020036101000a031916815260200191505b50995050505050505050505060405180910390f35b34156107ba57600080fd5b6107db60048080359060200190820180359060200191909192905050611977565b60405180806020018060200180602001848103845287818151815260200191508051906020019060200280838360005b8381101561082657808201518184015260208101905061080b565b50505050905001848103835286818151815260200191508051906020019080838360005b8381101561086557808201518184015260208101905061084a565b50505050905090810190601f1680156108925780820380516001836020036101000a031916815260200191505b50848103825285818151815260200191508051906020019080838360005b838110156108cb5780820151818401526020810190506108b0565b50505050905090810190601f1680156108f85780820380516001836020036101000a031916815260200191505b50965050505050505060405180910390f35b341561091557600080fd5b610941600480803573ffffffffffffffffffffffffffffffffffffffff16906020019091905050611bc8565b604051808060200180602001841515151581526020018381038352868181546001816001161561010002031660029004815260200191508054600181600116156101000203166002900480156109d85780601f106109ad576101008083540402835291602001916109d8565b820191906000526020600020905b8154815290600101906020018083116109bb57829003601f168201915b5050838103825285818154600181600116156101000203166002900481526020019150805460018160011615610100020316600290048015610a5b5780601f10610a3057610100808354040283529160200191610a5b565b820191906000526020600020905b815481529060010190602001808311610a3e57829003601f168201915b50509550505050505060405180910390f35b3415610a7857600080fd5b610aa4600480803573ffffffffffffffffffffffffffffffffffffffff16906020019091905050611bfd565b6040518082815260200191505060405180910390f35b6000610ac4611e78565b610acc611e78565b610ad4611e78565b60008060008090505b600280549050811015610e7257600281815481101515610af957fe5b90600052602060002090600602016002016040518082805460018160011615610100020316600290048015610b655780601f10610b43576101008083540402835291820191610b65565b820191906000526020600020905b815481529060010190602001808311610b51575b50509150506040518091039020600019168989604051808383808284378201915050925050506040518091039020600019161415610e6557600281815481101515610bac57fe5b906000526020600020906006020160000160009054906101000a900473ffffffffffffffffffffffffffffffffffffffff16600282815481101515610bed57fe5b9060005260206000209060060201600101600283815481101515610c0d57fe5b9060005260206000209060060201600201600284815481101515610c2d57fe5b9060005260206000209060060201600301600285815481101515610c4d57fe5b906000526020600020906006020160040154600286815481101515610c6e57fe5b906000526020600020906006020160050154848054600181600116156101000203166002900480601f016020809104026020016040519081016040528092919081815260200182805460018160011615610100020316600290048015610d155780601f10610cea57610100808354040283529160200191610d15565b820191906000526020600020905b815481529060010190602001808311610cf857829003601f168201915b50505050509450838054600181600116156101000203166002900480601f016020809104026020016040519081016040528092919081815260200182805460018160011615610100020316600290048015610db15780601f10610d8657610100808354040283529160200191610db1565b820191906000526020600020905b815481529060010190602001808311610d9457829003601f168201915b50505050509350828054600181600116156101000203166002900480601f016020809104026020016040519081016040528092919081815260200182805460018160011615610100020316600290048015610e4d5780601f10610e2257610100808354040283529160200191610e4d565b820191906000526020600020905b815481529060010190602001808311610e3057829003601f168201915b50505050509250965096509650965096509650610e73565b8080600101915050610add565b5b509295509295509295565b60016020528060005260406000206000915054906101000a900473ffffffffffffffffffffffffffffffffffffffff1681565b600281815481101515610ec057fe5b90600052602060002090600602016000915090508060000160009054906101000a900473ffffffffffffffffffffffffffffffffffffffff16908060010190806002019080600301908060040154908060050154905086565b60008060008060003373ffffffffffffffffffffffffffffffffffffffff1673ffffffffffffffffffffffffffffffffffffffff16815260200190815260200160002060020160009054906101000a900460ff161515610f7857600080fd5b610fb389898080601f016020809104026020016040519081016040528093929190818152602001838380828437820191505050505050611c15565b151515610fbf57600080fd5b4292503387876000803373ffffffffffffffffffffffffffffffffffffffff1673ffffffffffffffffffffffffffffffffffffffff168152602001908152602001600020600001604051808573ffffffffffffffffffffffffffffffffffffffff1673ffffffffffffffffffffffffffffffffffffffff166c010000000000000000000000000281526014018484808284378201915050828054600181600116156101000203166002900480156110ad5780601f1061108b5761010080835404028352918201916110ad565b820191906000526020600020905b815481529060010190602001808311611099575b5050945050505050604051809103902091506001600280548060010182816110d59190611e8c565b9160005260206000209060060201600060c0604051908101604052803373ffffffffffffffffffffffffffffffffffffffff1681526020018c8c8080601f01602080910402602001604051908101604052809392919081815260200183838082843782019150505050505081526020018e8e8080601f01602080910402602001604051908101604052809392919081815260200183838082843782019150505050505081526020018a8a8080601f01602080910402602001604051908101604052809392919081815260200183838082843782019150505050505081526020018881526020018760001916815250909190915060008201518160000160006101000a81548173ffffffffffffffffffffffffffffffffffffffff021916908373ffffffffffffffffffffffffffffffffffffffff160217905550602082015181600101908051906020019061122b929190611ebe565b506040820151816002019080519060200190611248929190611ebe565b506060820151816003019080519060200190611265929190611ebe565b506080820151816004015560a082015181600501906000191690555050039050336003600083815260200190815260200160002060006101000a81548173ffffffffffffffffffffffffffffffffffffffff021916908373ffffffffffffffffffffffffffffffffffffffff160217905550600460003373ffffffffffffffffffffffffffffffffffffffff1673ffffffffffffffffffffffffffffffffffffffff16815260200190815260200160002060008154809291906001019190505550505050505050505050565b6000803373ffffffffffffffffffffffffffffffffffffffff1673ffffffffffffffffffffffffffffffffffffffff16815260200190815260200160002060020160009054906101000a900460ff1615151561138c57600080fd5b60006001600086866040518083838082843782019150509250505060405180910390206000191660001916815260200190815260200160002060009054906101000a900473ffffffffffffffffffffffffffffffffffffffff1673ffffffffffffffffffffffffffffffffffffffff1614151561140857600080fd5b83836000803373ffffffffffffffffffffffffffffffffffffffff1673ffffffffffffffffffffffffffffffffffffffff1681526020019081526020016000206000019190611458929190611f3e565b5081816000803373ffffffffffffffffffffffffffffffffffffffff1673ffffffffffffffffffffffffffffffffffffffff16815260200190815260200160002060010191906114a9929190611f3e565b5060016000803373ffffffffffffffffffffffffffffffffffffffff1673ffffffffffffffffffffffffffffffffffffffff16815260200190815260200160002060020160006101000a81548160ff021916908315150217905550336001600086866040518083838082843782019150509250505060405180910390206000191660001916815260200190815260200160002060006101000a81548173ffffffffffffffffffffffffffffffffffffffff021916908373ffffffffffffffffffffffffffffffffffffffff16021790555050505050565b60036020528060005260406000206000915054906101000a900473ffffffffffffffffffffffffffffffffffffffff1681565b60006115bd611e78565b6115c5611e78565b6115cd611e78565b60008060008090505b60028054905081101561196b576002818154811015156115f257fe5b9060005260206000209060060201600101604051808280546001816001161561010002031660029004801561165e5780601f1061163c57610100808354040283529182019161165e565b820191906000526020600020905b81548152906001019060200180831161164a575b5050915050604051809103902060001916898960405180838380828437820191505092505050604051809103902060001916141561195e576002818154811015156116a557fe5b906000526020600020906006020160000160009054906101000a900473ffffffffffffffffffffffffffffffffffffffff166002828154811015156116e657fe5b906000526020600020906006020160010160028381548110151561170657fe5b906000526020600020906006020160020160028481548110151561172657fe5b906000526020600020906006020160030160028581548110151561174657fe5b90600052602060002090600602016004015460028681548110151561176757fe5b906000526020600020906006020160050154848054600181600116156101000203166002900480601f01602080910402602001604051908101604052809291908181526020018280546001816001161561010002031660029004801561180e5780601f106117e35761010080835404028352916020019161180e565b820191906000526020600020905b8154815290600101906020018083116117f157829003601f168201915b50505050509450838054600181600116156101000203166002900480601f0160208091040260200160405190810160405280929190818152602001828054600181600116156101000203166002900480156118aa5780601f1061187f576101008083540402835291602001916118aa565b820191906000526020600020905b81548152906001019060200180831161188d57829003601f168201915b50505050509350828054600181600116156101000203166002900480601f0160208091040260200160405190810160405280929190818152602001828054600181600116156101000203166002900480156119465780601f1061191b57610100808354040283529160200191611946565b820191906000526020600020905b81548152906001019060200180831161192957829003601f168201915b5050505050925096509650965096509650965061196c565b80806001019150506115d6565b5b509295509295509295565b61197f611fbe565b611987611e78565b61198f611e78565b6000611999611fbe565b6001600088886040518083838082843782019150509250505060405180910390206000191660001916815260200190815260200160002060009054906101000a900473ffffffffffffffffffffffffffffffffffffffff1691506119fc82611d4a565b9050806000808473ffffffffffffffffffffffffffffffffffffffff1673ffffffffffffffffffffffffffffffffffffffff1681526020019081526020016000206000016000808573ffffffffffffffffffffffffffffffffffffffff1673ffffffffffffffffffffffffffffffffffffffff168152602001908152602001600020600101818054600181600116156101000203166002900480601f016020809104026020016040519081016040528092919081815260200182805460018160011615610100020316600290048015611b165780601f10611aeb57610100808354040283529160200191611b16565b820191906000526020600020905b815481529060010190602001808311611af957829003601f168201915b50505050509150808054600181600116156101000203166002900480601f016020809104026020016040519081016040528092919081815260200182805460018160011615610100020316600290048015611bb25780601f10611b8757610100808354040283529160200191611bb2565b820191906000526020600020905b815481529060010190602001808311611b9557829003601f168201915b5050505050905094509450945050509250925092565b6000602052806000526040600020600091509050806000019080600101908060020160009054906101000a900460ff16905083565b60046020528060005260406000206000915090505481565b6000806000836040518082805190602001908083835b602083101515611c505780518252602082019150602081019050602083039250611c2b565b6001836020036101000a03801982511681845116808217855250505050505090500191505060405180910390209150600090505b600280549050811015611d3e57600281815481101515611ca057fe5b90600052602060002090600602016002016040518082805460018160011615610100020316600290048015611d0c5780601f10611cea576101008083540402835291820191611d0c565b820191906000526020600020905b815481529060010190602001808311611cf8575b505091505060405180910390206000191682600019161415611d315760019250611d43565b8080600101915050611c84565b600092505b5050919050565b611d52611fbe565b611d5a611fbe565b600080600460008673ffffffffffffffffffffffffffffffffffffffff1673ffffffffffffffffffffffffffffffffffffffff16815260200190815260200160002054604051805910611daa5750595b9080825280602002602001820160405250925060009150600090505b600280549050811015611e6d578473ffffffffffffffffffffffffffffffffffffffff166003600083815260200190815260200160002060009054906101000a900473ffffffffffffffffffffffffffffffffffffffff1673ffffffffffffffffffffffffffffffffffffffff161415611e6057808383815181101515611e4957fe5b906020019060200201818152505081806001019250505b8080600101915050611dc6565b829350505050919050565b602060405190810160405280600081525090565b815481835581811511611eb957600602816006028360005260206000209182019101611eb89190611fd2565b5b505050565b828054600181600116156101000203166002900490600052602060002090601f016020900481019282601f10611eff57805160ff1916838001178555611f2d565b82800160010185558215611f2d579182015b82811115611f2c578251825591602001919060010190611f11565b5b509050611f3a9190612058565b5090565b828054600181600116156101000203166002900490600052602060002090601f016020900481019282601f10611f7f57803560ff1916838001178555611fad565b82800160010185558215611fad579182015b82811115611fac578235825591602001919060010190611f91565b5b509050611fba9190612058565b5090565b602060405190810160405280600081525090565b61205591905b8082111561205157600080820160006101000a81549073ffffffffffffffffffffffffffffffffffffffff0219169055600182016000612018919061207d565b600282016000612028919061207d565b600382016000612038919061207d565b6004820160009055600582016000905550600601611fd8565b5090565b90565b61207a91905b8082111561207657600081600090555060010161205e565b5090565b90565b50805460018160011615610100020316600290046000825580601f106120a357506120c2565b601f0160209004906000526020600020908101906120c19190612058565b5b505600a165627a7a7230582050750d2bd08cd8138784c4073838ef8746c5cca434fffe2e91698fae298936810029",
  "source": "pragma solidity ^0.4.19;\n\nimport './authors.sol';\n\ncontract IPFS is Authors{\n\n   struct Book {\n        address authorAddress;\n        string title;\n        string bookHash; //ipfs book hash\n        string thumbHash; //ipfs thumbnail hash\n        uint timestamp; //Time of publishing\n        bytes32 IPPR; //Interplanetary Publishing Reference\n    }\n\n    Book[] public books;\n\n    mapping (uint => address) public BookToOwner;\n    mapping (address => uint) public OwnerBookCount;\n\n    function addBook(string _bookHash, string _title, string _thumbHash) external {\n        //Check if author is registered\n        require(authors[msg.sender].registered);\n        //Check if book exists on contract\n        require(!_bookExists(_bookHash));\n            uint _timestamp = now;\n            bytes32 _IPPR = keccak256(msg.sender, _title, authors[msg.sender].name);\n            uint id = books.push(Book(msg.sender, _title, _bookHash, _thumbHash, _timestamp, _IPPR))-1;\n            BookToOwner[id] = msg.sender;\n            OwnerBookCount[msg.sender]++; ///CONVERT TO SAFEMATH\n    }\n\n    function _bookExists(string _bookHash) internal view returns (bool) {\n        bytes32 check = keccak256(_bookHash);\n        for (uint i = 0; i < books.length; i++) {\n           if (check == keccak256(books[i].bookHash)) return true;\n        }\n        return false;\n    }\n\n    function _bookExistsAssembly(string _bookHash) internal view returns (bool) {\n        bytes32 hash = keccak256(_bookHash);\n        bool equal;\n        for (uint i = 0; i < books.length; i++) {\n            bytes32 tmpHash = keccak256(books[i].bookHash);\n            assembly {\n                //mstore(0x0, _bookHash)\n                //let hash := keccak256(0x0, 32)\n                mstore(0x1 , tmpHash)\n                {\n                    //We should return here instead of completing the loop\n                    if eq(tmpHash, hash) { equal := 1 }\n                }\n            }\n            return equal;\n        }\n    }\n\n    function getBooksByAuthor(address _author) internal view returns (uint[]) {\n        uint[] memory result = new uint[](OwnerBookCount[_author]);\n        uint counter = 0;\n        for (uint i = 0; i < books.length; i++) { //CONVERT TO SAFEMATH\n          if (BookToOwner[i] == _author) {\n            result[counter] = i;\n            counter++; ///CONVERT TO SAFEMATH\n          }\n        }\n        return result;\n    }\n\n    function getBooksByAuthorName(string _author) external view returns (uint[], string, string) {\n        address author = authorAddresses[keccak256(_author)];\n        uint[] memory getBooks = getBooksByAuthor(author);\n        return(getBooks, authors[author].name, authors[author].email);\n    }\n\n    function getBookByTitle(string _title) external view returns (address author, string title, string bookHash, string thumbHash, uint timestamp, bytes32 IPPR) {\n        for (uint i = 0; i < books.length; i++) {\n         if (keccak256(_title) == keccak256(books[i].title)) return (books[i].authorAddress, books[i].title, books[i].bookHash, books[i].thumbHash, books[i].timestamp, books[i].IPPR);\n        }\n    }\n\n    function getBookByHash(string _bookHash) external view returns (address author, string title, string bookHash, string thumbHash, uint timestamp, bytes32 IPPR) {\n        for (uint i = 0; i < books.length; i++) {\n         if (keccak256(_bookHash) == keccak256(books[i].bookHash)) return (books[i].authorAddress, books[i].title, books[i].bookHash, books[i].thumbHash, books[i].timestamp, books[i].IPPR);\n        }\n    }\n}\n",
  "sourcePath": "/home/altstreet/Documents/ethreader/contracts/ipfs.sol",
  "compiler": {
    "name": "solc",
    "version": "0.4.19+commit.c4cbbb05.Emscripten.clang"
  },
  "schemaVersion": "2.0.0",
  "updatedAt": "2018-04-15T21:16:08.743Z"
}