{
  "contractName": "IPFS",
  "abi": [
    {
      "constant": true,
      "inputs": [
        {
          "name": "",
          "type": "uint256"
        }
      ],
      "name": "books",
      "outputs": [
        {
          "name": "author",
          "type": "address"
        },
        {
          "name": "title",
          "type": "string"
        },
        {
          "name": "bookHash",
          "type": "string"
        },
        {
          "name": "thumbHash",
          "type": "string"
        },
        {
          "name": "timestamp",
          "type": "uint256"
        },
        {
          "name": "IPPR",
          "type": "bytes32"
        }
      ],
      "payable": false,
      "stateMutability": "view",
      "type": "function"
    },
    {
      "constant": false,
      "inputs": [
        {
          "name": "_firstName",
          "type": "string"
        },
        {
          "name": "_lastName",
          "type": "string"
        },
        {
          "name": "_email",
          "type": "string"
        }
      ],
      "name": "newAuthor",
      "outputs": [],
      "payable": false,
      "stateMutability": "nonpayable",
      "type": "function"
    },
    {
      "constant": true,
      "inputs": [
        {
          "name": "",
          "type": "uint256"
        }
      ],
      "name": "BookToOwner",
      "outputs": [
        {
          "name": "",
          "type": "address"
        }
      ],
      "payable": false,
      "stateMutability": "view",
      "type": "function"
    },
    {
      "constant": true,
      "inputs": [
        {
          "name": "",
          "type": "address"
        }
      ],
      "name": "authors",
      "outputs": [
        {
          "name": "firstName",
          "type": "string"
        },
        {
          "name": "lastName",
          "type": "string"
        },
        {
          "name": "fullName",
          "type": "string"
        },
        {
          "name": "email",
          "type": "string"
        },
        {
          "name": "registered",
          "type": "bool"
        }
      ],
      "payable": false,
      "stateMutability": "view",
      "type": "function"
    },
    {
      "constant": true,
      "inputs": [
        {
          "name": "",
          "type": "address"
        }
      ],
      "name": "OwnerBookCount",
      "outputs": [
        {
          "name": "",
          "type": "uint256"
        }
      ],
      "payable": false,
      "stateMutability": "view",
      "type": "function"
    },
    {
      "constant": false,
      "inputs": [
        {
          "name": "_bookHash",
          "type": "string"
        },
        {
          "name": "_title",
          "type": "string"
        },
        {
          "name": "_thumbHash",
          "type": "string"
        }
      ],
      "name": "addBook",
      "outputs": [
        {
          "name": "success",
          "type": "bool"
        }
      ],
      "payable": false,
      "stateMutability": "nonpayable",
      "type": "function"
    },
    {
      "constant": true,
      "inputs": [
        {
          "name": "_author",
          "type": "address"
        }
      ],
      "name": "getBooksByAuthor",
      "outputs": [
        {
          "name": "",
          "type": "uint256[]"
        }
      ],
      "payable": false,
      "stateMutability": "view",
      "type": "function"
    },
    {
      "constant": true,
      "inputs": [
        {
          "name": "_title",
          "type": "string"
        }
      ],
      "name": "getBookByTitle",
      "outputs": [
        {
          "name": "author",
          "type": "address"
        },
        {
          "name": "bookHash",
          "type": "string"
        },
        {
          "name": "title",
          "type": "string"
        },
        {
          "name": "thumbHash",
          "type": "string"
        }
      ],
      "payable": false,
      "stateMutability": "view",
      "type": "function"
    },
    {
      "constant": true,
      "inputs": [
        {
          "name": "_bookHash",
          "type": "string"
        }
      ],
      "name": "getBookByHash",
      "outputs": [
        {
          "name": "bookHash",
          "type": "string"
        },
        {
          "name": "title",
          "type": "string"
        },
        {
          "name": "author",
          "type": "address"
        },
        {
          "name": "IPPR",
          "type": "bytes32"
        }
      ],
      "payable": false,
      "stateMutability": "view",
      "type": "function"
    }
  ],
  "bytecode": "0x6060604052341561000f57600080fd5b6122888061001e6000396000f300606060405260043610610099576000357c0100000000000000000000000000000000000000000000000000000000900463ffffffff168063067a1a191461009e57806368744046146101f357806369c46826146104075780636b68c98214610502578063960a72ab146105585780639e08c566146105e65780639f40eb5914610649578063bf9c5001146107fb578063c8bc8cae14610a70575b600080fd5b34156100a957600080fd5b6100ca60048080359060200190820180359060200191909192905050610abd565b6040518080602001806020018573ffffffffffffffffffffffffffffffffffffffff1673ffffffffffffffffffffffffffffffffffffffff1681526020018460001916600019168152602001838103835287818151815260200191508051906020019080838360005b8381101561014e578082015181840152602081019050610133565b50505050905090810190601f16801561017b5780820380516001836020036101000a031916815260200191505b50838103825286818151815260200191508051906020019080838360005b838110156101b4578082015181840152602081019050610199565b50505050905090810190601f1680156101e15780820380516001836020036101000a031916815260200191505b50965050505050505060405180910390f35b34156101fe57600080fd5b6102146004808035906020019091905050610d95565b604051808773ffffffffffffffffffffffffffffffffffffffff1673ffffffffffffffffffffffffffffffffffffffff16815260200180602001806020018060200186815260200185600019166000191681526020018481038452898181546001816001161561010002031660029004815260200191508054600181600116156101000203166002900480156102eb5780601f106102c0576101008083540402835291602001916102eb565b820191906000526020600020905b8154815290600101906020018083116102ce57829003601f168201915b505084810383528881815460018160011615610100020316600290048152602001915080546001816001161561010002031660029004801561036e5780601f106103435761010080835404028352916020019161036e565b820191906000526020600020905b81548152906001019060200180831161035157829003601f168201915b50508481038252878181546001816001161561010002031660029004815260200191508054600181600116156101000203166002900480156103f15780601f106103c6576101008083540402835291602001916103f1565b820191906000526020600020905b8154815290600101906020018083116103d457829003601f168201915b5050995050505050505050505060405180910390f35b341561041257600080fd5b6104e8600480803590602001908201803590602001908080601f0160208091040260200160405190810160405280939291908181526020018383808284378201915050505050509190803590602001908201803590602001908080601f0160208091040260200160405190810160405280939291908181526020018383808284378201915050505050509190803590602001908201803590602001908080601f01602080910402602001604051908101604052809392919081815260200183838082843782019150505050505091905050610dfd565b604051808215151515815260200191505060405180910390f35b341561050d57600080fd5b610556600480803590602001908201803590602001919091929080359060200190820180359060200191909192908035906020019082018035906020019190919290505061119a565b005b341561056357600080fd5b61058f600480803573ffffffffffffffffffffffffffffffffffffffff169060200190919050506113be565b6040518080602001828103825283818151815260200191508051906020019060200280838360005b838110156105d25780820151818401526020810190506105b7565b505050509050019250505060405180910390f35b34156105f157600080fd5b61060760048080359060200190919050506114ec565b604051808273ffffffffffffffffffffffffffffffffffffffff1673ffffffffffffffffffffffffffffffffffffffff16815260200191505060405180910390f35b341561065457600080fd5b6106756004808035906020019082018035906020019190919290505061151f565b604051808573ffffffffffffffffffffffffffffffffffffffff1673ffffffffffffffffffffffffffffffffffffffff168152602001806020018060200180602001848103845287818151815260200191508051906020019080838360005b838110156106ef5780820151818401526020810190506106d4565b50505050905090810190601f16801561071c5780820380516001836020036101000a031916815260200191505b50848103835286818151815260200191508051906020019080838360005b8381101561075557808201518184015260208101905061073a565b50505050905090810190601f1680156107825780820380516001836020036101000a031916815260200191505b50848103825285818151815260200191508051906020019080838360005b838110156107bb5780820151818401526020810190506107a0565b50505050905090810190601f1680156107e85780820380516001836020036101000a031916815260200191505b5097505050505050505060405180910390f35b341561080657600080fd5b610832600480803573ffffffffffffffffffffffffffffffffffffffff16906020019091905050611899565b60405180806020018060200180602001806020018615151515815260200185810385528a8181546001816001161561010002031660029004815260200191508054600181600116156101000203166002900480156108d15780601f106108a6576101008083540402835291602001916108d1565b820191906000526020600020905b8154815290600101906020018083116108b457829003601f168201915b50508581038452898181546001816001161561010002031660029004815260200191508054600181600116156101000203166002900480156109545780601f1061092957610100808354040283529160200191610954565b820191906000526020600020905b81548152906001019060200180831161093757829003601f168201915b50508581038352888181546001816001161561010002031660029004815260200191508054600181600116156101000203166002900480156109d75780601f106109ac576101008083540402835291602001916109d7565b820191906000526020600020905b8154815290600101906020018083116109ba57829003601f168201915b5050858103825287818154600181600116156101000203166002900481526020019150805460018160011615610100020316600290048015610a5a5780601f10610a2f57610100808354040283529160200191610a5a565b820191906000526020600020905b815481529060010190602001808311610a3d57829003601f168201915b5050995050505050505050505060405180910390f35b3415610a7b57600080fd5b610aa7600480803573ffffffffffffffffffffffffffffffffffffffff169060200190919050506118d8565b6040518082815260200191505060405180910390f35b610ac5611f7b565b610acd611f7b565b60008060008090505b600180549050811015610d8a57600181815481101515610af257fe5b90600052602060002090600602016002016040518082805460018160011615610100020316600290048015610b5e5780601f10610b3c576101008083540402835291820191610b5e565b820191906000526020600020905b815481529060010190602001808311610b4a575b50509150506040518091039020600019168787604051808383808284378201915050925050506040518091039020600019161415610d7d57600181815481101515610ba557fe5b9060005260206000209060060201600201600182815481101515610bc557fe5b9060005260206000209060060201600101600183815481101515610be557fe5b906000526020600020906006020160000160009054906101000a900473ffffffffffffffffffffffffffffffffffffffff16600184815481101515610c2657fe5b906000526020600020906006020160050154838054600181600116156101000203166002900480601f016020809104026020016040519081016040528092919081815260200182805460018160011615610100020316600290048015610ccd5780601f10610ca257610100808354040283529160200191610ccd565b820191906000526020600020905b815481529060010190602001808311610cb057829003601f168201915b50505050509350828054600181600116156101000203166002900480601f016020809104026020016040519081016040528092919081815260200182805460018160011615610100020316600290048015610d695780601f10610d3e57610100808354040283529160200191610d69565b820191906000526020600020905b815481529060010190602001808311610d4c57829003601f168201915b505050505092509450945094509450610d8b565b8080600101915050610ad6565b5b5092959194509250565b600181815481101515610da457fe5b90600052602060002090600602016000915090508060000160009054906101000a900473ffffffffffffffffffffffffffffffffffffffff16908060010190806002019080600301908060040154908060050154905086565b6000806000806000803373ffffffffffffffffffffffffffffffffffffffff1673ffffffffffffffffffffffffffffffffffffffff16815260200190815260200160002060040160009054906101000a900460ff161515610e5d57600080fd5b610e66876118f0565b151561118b5742925033866000803373ffffffffffffffffffffffffffffffffffffffff1673ffffffffffffffffffffffffffffffffffffffff168152602001908152602001600020600201604051808473ffffffffffffffffffffffffffffffffffffffff1673ffffffffffffffffffffffffffffffffffffffff166c0100000000000000000000000002815260140183805190602001908083835b602083101515610f285780518252602082019150602081019050602083039250610f03565b6001836020036101000a03801982511681845116808217855250505050505090500182805460018160011615610100020316600290048015610fa15780601f10610f7f576101008083540402835291820191610fa1565b820191906000526020600020905b815481529060010190602001808311610f8d575b50509350505050604051809103902091506001808054806001018281610fc79190611f8f565b9160005260206000209060060201600060c0604051908101604052803373ffffffffffffffffffffffffffffffffffffffff1681526020018b81526020018c81526020018a81526020018881526020018760001916815250909190915060008201518160000160006101000a81548173ffffffffffffffffffffffffffffffffffffffff021916908373ffffffffffffffffffffffffffffffffffffffff1602179055506020820151816001019080519060200190611087929190611fc1565b5060408201518160020190805190602001906110a4929190611fc1565b5060608201518160030190805190602001906110c1929190611fc1565b506080820151816004015560a082015181600501906000191690555050039050336002600083815260200190815260200160002060006101000a81548173ffffffffffffffffffffffffffffffffffffffff021916908373ffffffffffffffffffffffffffffffffffffffff160217905550600360003373ffffffffffffffffffffffffffffffffffffffff1673ffffffffffffffffffffffffffffffffffffffff1681526020019081526020016000206000815480929190600101919050555060019350611190565b600093505b5050509392505050565b85856000803373ffffffffffffffffffffffffffffffffffffffff1673ffffffffffffffffffffffffffffffffffffffff16815260200190815260200160002060000191906111ea929190612041565b5083836000803373ffffffffffffffffffffffffffffffffffffffff1673ffffffffffffffffffffffffffffffffffffffff168152602001908152602001600020600101919061123b929190612041565b506112b684848080601f016020809104026020016040519081016040528093929190818152602001838380828437820191505050505050600188888080601f016020809104026020016040519081016040528093929190818152602001838380828437820191505050505050611a259092919063ffffffff16565b6000803373ffffffffffffffffffffffffffffffffffffffff1673ffffffffffffffffffffffffffffffffffffffff168152602001908152602001600020600201908051906020019061130a9291906120c1565b5081816000803373ffffffffffffffffffffffffffffffffffffffff1673ffffffffffffffffffffffffffffffffffffffff168152602001908152602001600020600301919061135b929190612041565b5060016000803373ffffffffffffffffffffffffffffffffffffffff1673ffffffffffffffffffffffffffffffffffffffff16815260200190815260200160002060040160006101000a81548160ff021916908315150217905550505050505050565b6113c6612141565b6113ce612141565b600080600360008673ffffffffffffffffffffffffffffffffffffffff1673ffffffffffffffffffffffffffffffffffffffff1681526020019081526020016000205460405180591061141e5750595b9080825280602002602001820160405250925060009150600090505b6001805490508110156114e1578473ffffffffffffffffffffffffffffffffffffffff166002600083815260200190815260200160002060009054906101000a900473ffffffffffffffffffffffffffffffffffffffff1673ffffffffffffffffffffffffffffffffffffffff1614156114d4578083838151811015156114bd57fe5b906020019060200201818152505081806001019250505b808060010191505061143a565b829350505050919050565b60026020528060005260406000206000915054906101000a900473ffffffffffffffffffffffffffffffffffffffff1681565b6000611529611f7b565b611531611f7b565b611539611f7b565b60008090505b60018054905081101561188e5760018181548110151561155b57fe5b906000526020600020906006020160010160405180828054600181600116156101000203166002900480156115c75780601f106115a55761010080835404028352918201916115c7565b820191906000526020600020905b8154815290600101906020018083116115b3575b505091505060405180910390206000191687876040518083838082843782019150509250505060405180910390206000191614156118815760018181548110151561160e57fe5b906000526020600020906006020160000160009054906101000a900473ffffffffffffffffffffffffffffffffffffffff1660018281548110151561164f57fe5b906000526020600020906006020160020160018381548110151561166f57fe5b906000526020600020906006020160010160018481548110151561168f57fe5b9060005260206000209060060201600301828054600181600116156101000203166002900480601f0160208091040260200160405190810160405280929190818152602001828054600181600116156101000203166002900480156117355780601f1061170a57610100808354040283529160200191611735565b820191906000526020600020905b81548152906001019060200180831161171857829003601f168201915b50505050509250818054600181600116156101000203166002900480601f0160208091040260200160405190810160405280929190818152602001828054600181600116156101000203166002900480156117d15780601f106117a6576101008083540402835291602001916117d1565b820191906000526020600020905b8154815290600101906020018083116117b457829003601f168201915b50505050509150808054600181600116156101000203166002900480601f01602080910402602001604051908101604052809291908181526020018280546001816001161561010002031660029004801561186d5780601f106118425761010080835404028352916020019161186d565b820191906000526020600020905b81548152906001019060200180831161185057829003601f168201915b50505050509050945094509450945061188f565b808060010191505061153f565b5b5092959194509250565b600060205280600052604060002060009150905080600001908060010190806002019080600301908060040160009054906101000a900460ff16905085565b60036020528060005260406000206000915090505481565b6000806000836040518082805190602001908083835b60208310151561192b5780518252602082019150602081019050602083039250611906565b6001836020036101000a03801982511681845116808217855250505050505090500191505060405180910390209150600090505b600180549050811015611a195760018181548110151561197b57fe5b906000526020600020906006020160020160405180828054600181600116156101000203166002900480156119e75780601f106119c55761010080835404028352918201916119e7565b820191906000526020600020905b8154815290600101906020018083116119d3575b505091505060405180910390206000191682600019161415611a0c5760019250611a1e565b808060010191505061195f565b600092505b5050919050565b611a2d611f7b565b611a35611f7b565b611a3d612155565b611a45612155565b611a4d612155565b611a55611f7b565b611a5d612155565b6000808915611d0a576040805190810160405280600181526020017f200000000000000000000000000000000000000000000000000000000000000081525097508796508b95508a94508451875187510101604051805910611abc5750595b9080825280601f01601f1916602001820160405250935083925060009150600090505b8551811015611b92578581815181101515611af657fe5b9060200101517f010000000000000000000000000000000000000000000000000000000000000090047f0100000000000000000000000000000000000000000000000000000000000000028383806001019450815181101515611b5557fe5b9060200101907effffffffffffffffffffffffffffffffffffffffffffffffffffffffffffff1916908160001a9053508080600101915050611adf565b600090505b8651811015611c4a578681815181101515611bae57fe5b9060200101517f010000000000000000000000000000000000000000000000000000000000000090047f0100000000000000000000000000000000000000000000000000000000000000028383806001019450815181101515611c0d57fe5b9060200101907effffffffffffffffffffffffffffffffffffffffffffffffffffffffffffff1916908160001a9053508080600101915050611b97565b600090505b8451811015611d02578481815181101515611c6657fe5b9060200101517f010000000000000000000000000000000000000000000000000000000000000090047f0100000000000000000000000000000000000000000000000000000000000000028383806001019450815181101515611cc557fe5b9060200101907effffffffffffffffffffffffffffffffffffffffffffffffffffffffffffff1916908160001a9053508080600101915050611c4f565b829850611f6c565b8b95508a94508451865101604051805910611d225750595b9080825280601f01601f1916602001820160405250935083925060009150600090505b8551811015611df8578581815181101515611d5c57fe5b9060200101517f010000000000000000000000000000000000000000000000000000000000000090047f0100000000000000000000000000000000000000000000000000000000000000028383806001019450815181101515611dbb57fe5b9060200101907effffffffffffffffffffffffffffffffffffffffffffffffffffffffffffff1916908160001a9053508080600101915050611d45565b600090505b8651811015611eb0578681815181101515611e1457fe5b9060200101517f010000000000000000000000000000000000000000000000000000000000000090047f0100000000000000000000000000000000000000000000000000000000000000028383806001019450815181101515611e7357fe5b9060200101907effffffffffffffffffffffffffffffffffffffffffffffffffffffffffffff1916908160001a9053508080600101915050611dfd565b600090505b8451811015611f68578481815181101515611ecc57fe5b9060200101517f010000000000000000000000000000000000000000000000000000000000000090047f0100000000000000000000000000000000000000000000000000000000000000028383806001019450815181101515611f2b57fe5b9060200101907effffffffffffffffffffffffffffffffffffffffffffffffffffffffffffff1916908160001a9053508080600101915050611eb5565b8298505b50505050505050509392505050565b602060405190810160405280600081525090565b815481835581811511611fbc57600602816006028360005260206000209182019101611fbb9190612169565b5b505050565b828054600181600116156101000203166002900490600052602060002090601f016020900481019282601f1061200257805160ff1916838001178555612030565b82800160010185558215612030579182015b8281111561202f578251825591602001919060010190612014565b5b50905061203d91906121ef565b5090565b828054600181600116156101000203166002900490600052602060002090601f016020900481019282601f1061208257803560ff19168380011785556120b0565b828001600101855582156120b0579182015b828111156120af578235825591602001919060010190612094565b5b5090506120bd91906121ef565b5090565b828054600181600116156101000203166002900490600052602060002090601f016020900481019282601f1061210257805160ff1916838001178555612130565b82800160010185558215612130579182015b8281111561212f578251825591602001919060010190612114565b5b50905061213d91906121ef565b5090565b602060405190810160405280600081525090565b602060405190810160405280600081525090565b6121ec91905b808211156121e857600080820160006101000a81549073ffffffffffffffffffffffffffffffffffffffff02191690556001820160006121af9190612214565b6002820160006121bf9190612214565b6003820160006121cf9190612214565b600482016000905560058201600090555060060161216f565b5090565b90565b61221191905b8082111561220d5760008160009055506001016121f5565b5090565b90565b50805460018160011615610100020316600290046000825580601f1061223a5750612259565b601f01602090049060005260206000209081019061225891906121ef565b5b505600a165627a7a723058206da90386d7e622aec661c6b65c98b96e02f9e7487800fd20e46a44fb63630cfc0029",
  "source": "pragma solidity ^0.4.19;\n\nimport './authors.sol';\n\ncontract IPFS is Authors{\n\n   struct Book {\n        address author;\n        string title;\n        string bookHash; //ipfs book hash\n        string thumbHash; //ipfs thumbnail hash\n        uint timestamp; //Time of publishing\n        bytes32 IPPR; //Interplanetary Publishing Reference\n    }\n\n    Book[] public books;\n\n    mapping (uint => address) public BookToOwner;\n    mapping (address => uint) public OwnerBookCount;\n\n    function addBook(string _bookHash, string _title, string _thumbHash) public returns (bool success) {\n        //Check if author is registered\n        require(authors[msg.sender].registered);\n        //Check if book exists on contract\n        if (!_bookExists(_bookHash)) {\n            uint _timestamp = now;\n            bytes32 _IPPR = keccak256(msg.sender, _title, authors[msg.sender].fullName);\n            uint id = books.push(Book(msg.sender, _title, _bookHash, _thumbHash, _timestamp, _IPPR))-1;\n            BookToOwner[id] = msg.sender;\n            OwnerBookCount[msg.sender]++; ///CONVERT TO SAFEMATH\n            return true;\n        } else {\n            return false;\n        }\n    }\n\n    function _bookExists(string _bookHash) internal view returns (bool) {\n        bytes32 check = keccak256(_bookHash);\n        for (uint i = 0; i < books.length; i++) {\n           if (check == keccak256(books[i].bookHash)) return true;\n        }\n        return false;\n    }\n\n    function getBooksByAuthor(address _author) external view returns (uint[]) {\n        uint[] memory result = new uint[](OwnerBookCount[_author]);\n        uint counter = 0;\n        for (uint i = 0; i < books.length; i++) { //CONVERT TO SAFEMATH\n          if (BookToOwner[i] == _author) {\n            result[counter] = i;\n            counter++; ///CONVERT TO SAFEMATH\n          }\n        }\n        return result;\n    }\n\n    function getBookByTitle(string _title) external view returns (address author, string bookHash, string title, string thumbHash) {\n        for (uint i = 0; i < books.length; i++) {\n         if (keccak256(_title) == keccak256(books[i].title)) return (books[i].author, books[i].bookHash, books[i].title, books[i].thumbHash);\n        }\n    }\n\n    function getBookByHash(string _bookHash) external view returns (string bookHash, string title, address author, bytes32 IPPR) {\n        for (uint i = 0; i < books.length; i++) {\n         if (keccak256(_bookHash) == keccak256(books[i].bookHash)) return (books[i].bookHash, books[i].title, books[i].author, books[i].IPPR);\n        }\n    }\n}\n",
  "sourcePath": "/home/altstreet/Documents/ethreader/contracts/ipfs.sol",
  "compiler": {
    "name": "solc",
    "version": "0.4.19+commit.c4cbbb05.Emscripten.clang"
  },
  "schemaVersion": "2.0.0",
  "updatedAt": "2018-03-26T03:39:00.504Z"
}