{
  "contractName": "IPFS",
  "abi": [
    {
      "constant": true,
      "inputs": [
        {
          "name": "",
          "type": "bytes32"
        }
      ],
      "name": "authorAddresses",
      "outputs": [
        {
          "name": "",
          "type": "address"
        }
      ],
      "payable": false,
      "stateMutability": "view",
      "type": "function"
    },
    {
      "constant": true,
      "inputs": [
        {
          "name": "",
          "type": "uint256"
        }
      ],
      "name": "books",
      "outputs": [
        {
          "name": "authorAddress",
          "type": "address"
        },
        {
          "name": "title",
          "type": "string"
        },
        {
          "name": "bookHash",
          "type": "string"
        },
        {
          "name": "thumbHash",
          "type": "string"
        },
        {
          "name": "timestamp",
          "type": "uint256"
        },
        {
          "name": "IPPR",
          "type": "bytes32"
        }
      ],
      "payable": false,
      "stateMutability": "view",
      "type": "function"
    },
    {
      "constant": false,
      "inputs": [
        {
          "name": "_firstName",
          "type": "string"
        },
        {
          "name": "_lastName",
          "type": "string"
        },
        {
          "name": "_email",
          "type": "string"
        }
      ],
      "name": "newAuthor",
      "outputs": [],
      "payable": false,
      "stateMutability": "nonpayable",
      "type": "function"
    },
    {
      "constant": true,
      "inputs": [
        {
          "name": "",
          "type": "uint256"
        }
      ],
      "name": "BookToOwner",
      "outputs": [
        {
          "name": "",
          "type": "address"
        }
      ],
      "payable": false,
      "stateMutability": "view",
      "type": "function"
    },
    {
      "constant": true,
      "inputs": [
        {
          "name": "",
          "type": "address"
        }
      ],
      "name": "authors",
      "outputs": [
        {
          "name": "name",
          "type": "string"
        },
        {
          "name": "email",
          "type": "string"
        },
        {
          "name": "registered",
          "type": "bool"
        }
      ],
      "payable": false,
      "stateMutability": "view",
      "type": "function"
    },
    {
      "constant": true,
      "inputs": [
        {
          "name": "",
          "type": "address"
        }
      ],
      "name": "OwnerBookCount",
      "outputs": [
        {
          "name": "",
          "type": "uint256"
        }
      ],
      "payable": false,
      "stateMutability": "view",
      "type": "function"
    },
    {
      "constant": false,
      "inputs": [
        {
          "name": "_bookHash",
          "type": "string"
        },
        {
          "name": "_title",
          "type": "string"
        },
        {
          "name": "_thumbHash",
          "type": "string"
        }
      ],
      "name": "addBook",
      "outputs": [
        {
          "name": "success",
          "type": "bool"
        }
      ],
      "payable": false,
      "stateMutability": "nonpayable",
      "type": "function"
    },
    {
      "constant": true,
      "inputs": [
        {
          "name": "_author",
          "type": "string"
        }
      ],
      "name": "getBooksByAuthorName",
      "outputs": [
        {
          "name": "",
          "type": "uint256[]"
        },
        {
          "name": "",
          "type": "string"
        },
        {
          "name": "",
          "type": "string"
        }
      ],
      "payable": false,
      "stateMutability": "view",
      "type": "function"
    },
    {
      "constant": true,
      "inputs": [
        {
          "name": "_title",
          "type": "string"
        }
      ],
      "name": "getBookByTitle",
      "outputs": [
        {
          "name": "author",
          "type": "address"
        },
        {
          "name": "bookHash",
          "type": "string"
        },
        {
          "name": "title",
          "type": "string"
        },
        {
          "name": "thumbHash",
          "type": "string"
        }
      ],
      "payable": false,
      "stateMutability": "view",
      "type": "function"
    },
    {
      "constant": true,
      "inputs": [
        {
          "name": "_bookHash",
          "type": "string"
        }
      ],
      "name": "getBookByHash",
      "outputs": [
        {
          "name": "bookHash",
          "type": "string"
        },
        {
          "name": "title",
          "type": "string"
        },
        {
          "name": "author",
          "type": "address"
        },
        {
          "name": "IPPR",
          "type": "bytes32"
        }
      ],
      "payable": false,
      "stateMutability": "view",
      "type": "function"
    }
  ],
  "bytecode": "0x6060604052341561000f57600080fd5b6125c38061001e6000396000f3006060604052600436106100a4576000357c0100000000000000000000000000000000000000000000000000000000900463ffffffff168063067a1a19146100a95780632c1f96ef146101fe578063687440461461026557806369c46826146104795780636b68c982146105745780639e08c566146105ca5780639f40eb591461062d578063a11657ae146107df578063bf9c50011461093a578063c8bc8cae14610a9d575b600080fd5b34156100b457600080fd5b6100d560048080359060200190820180359060200191909192905050610aea565b6040518080602001806020018573ffffffffffffffffffffffffffffffffffffffff1673ffffffffffffffffffffffffffffffffffffffff1681526020018460001916600019168152602001838103835287818151815260200191508051906020019080838360005b8381101561015957808201518184015260208101905061013e565b50505050905090810190601f1680156101865780820380516001836020036101000a031916815260200191505b50838103825286818151815260200191508051906020019080838360005b838110156101bf5780820151818401526020810190506101a4565b50505050905090810190601f1680156101ec5780820380516001836020036101000a031916815260200191505b50965050505050505060405180910390f35b341561020957600080fd5b610223600480803560001916906020019091905050610dc2565b604051808273ffffffffffffffffffffffffffffffffffffffff1673ffffffffffffffffffffffffffffffffffffffff16815260200191505060405180910390f35b341561027057600080fd5b6102866004808035906020019091905050610df5565b604051808773ffffffffffffffffffffffffffffffffffffffff1673ffffffffffffffffffffffffffffffffffffffff168152602001806020018060200180602001868152602001856000191660001916815260200184810384528981815460018160011615610100020316600290048152602001915080546001816001161561010002031660029004801561035d5780601f106103325761010080835404028352916020019161035d565b820191906000526020600020905b81548152906001019060200180831161034057829003601f168201915b50508481038352888181546001816001161561010002031660029004815260200191508054600181600116156101000203166002900480156103e05780601f106103b5576101008083540402835291602001916103e0565b820191906000526020600020905b8154815290600101906020018083116103c357829003601f168201915b50508481038252878181546001816001161561010002031660029004815260200191508054600181600116156101000203166002900480156104635780601f1061043857610100808354040283529160200191610463565b820191906000526020600020905b81548152906001019060200180831161044657829003601f168201915b5050995050505050505050505060405180910390f35b341561048457600080fd5b61055a600480803590602001908201803590602001908080601f0160208091040260200160405190810160405280939291908181526020018383808284378201915050505050509190803590602001908201803590602001908080601f0160208091040260200160405190810160405280939291908181526020018383808284378201915050505050509190803590602001908201803590602001908080601f01602080910402602001604051908101604052809392919081815260200183838082843782019150505050505091905050610e5d565b604051808215151515815260200191505060405180910390f35b341561057f57600080fd5b6105c860048080359060200190820180359060200191909192908035906020019082018035906020019190919290803590602001908201803590602001919091929050506111fb565b005b34156105d557600080fd5b6105eb60048080359060200190919050506114b2565b604051808273ffffffffffffffffffffffffffffffffffffffff1673ffffffffffffffffffffffffffffffffffffffff16815260200191505060405180910390f35b341561063857600080fd5b610659600480803590602001908201803590602001919091929050506114e5565b604051808573ffffffffffffffffffffffffffffffffffffffff1673ffffffffffffffffffffffffffffffffffffffff168152602001806020018060200180602001848103845287818151815260200191508051906020019080838360005b838110156106d35780820151818401526020810190506106b8565b50505050905090810190601f1680156107005780820380516001836020036101000a031916815260200191505b50848103835286818151815260200191508051906020019080838360005b8381101561073957808201518184015260208101905061071e565b50505050905090810190601f1680156107665780820380516001836020036101000a031916815260200191505b50848103825285818151815260200191508051906020019080838360005b8381101561079f578082015181840152602081019050610784565b50505050905090810190601f1680156107cc5780820380516001836020036101000a031916815260200191505b5097505050505050505060405180910390f35b34156107ea57600080fd5b61080b6004808035906020019082018035906020019190919290505061185f565b60405180806020018060200180602001848103845287818151815260200191508051906020019060200280838360005b8381101561085657808201518184015260208101905061083b565b50505050905001848103835286818151815260200191508051906020019080838360005b8381101561089557808201518184015260208101905061087a565b50505050905090810190601f1680156108c25780820380516001836020036101000a031916815260200191505b50848103825285818151815260200191508051906020019080838360005b838110156108fb5780820151818401526020810190506108e0565b50505050905090810190601f1680156109285780820380516001836020036101000a031916815260200191505b50965050505050505060405180910390f35b341561094557600080fd5b610971600480803573ffffffffffffffffffffffffffffffffffffffff16906020019091905050611ab0565b60405180806020018060200184151515158152602001838103835286818154600181600116156101000203166002900481526020019150805460018160011615610100020316600290048015610a085780601f106109dd57610100808354040283529160200191610a08565b820191906000526020600020905b8154815290600101906020018083116109eb57829003601f168201915b5050838103825285818154600181600116156101000203166002900481526020019150805460018160011615610100020316600290048015610a8b5780601f10610a6057610100808354040283529160200191610a8b565b820191906000526020600020905b815481529060010190602001808311610a6e57829003601f168201915b50509550505050505060405180910390f35b3415610aa857600080fd5b610ad4600480803573ffffffffffffffffffffffffffffffffffffffff16906020019091905050611ae5565b6040518082815260200191505060405180910390f35b610af26122b6565b610afa6122b6565b60008060008090505b600280549050811015610db757600281815481101515610b1f57fe5b90600052602060002090600602016002016040518082805460018160011615610100020316600290048015610b8b5780601f10610b69576101008083540402835291820191610b8b565b820191906000526020600020905b815481529060010190602001808311610b77575b50509150506040518091039020600019168787604051808383808284378201915050925050506040518091039020600019161415610daa57600281815481101515610bd257fe5b9060005260206000209060060201600201600282815481101515610bf257fe5b9060005260206000209060060201600101600283815481101515610c1257fe5b906000526020600020906006020160000160009054906101000a900473ffffffffffffffffffffffffffffffffffffffff16600284815481101515610c5357fe5b906000526020600020906006020160050154838054600181600116156101000203166002900480601f016020809104026020016040519081016040528092919081815260200182805460018160011615610100020316600290048015610cfa5780601f10610ccf57610100808354040283529160200191610cfa565b820191906000526020600020905b815481529060010190602001808311610cdd57829003601f168201915b50505050509350828054600181600116156101000203166002900480601f016020809104026020016040519081016040528092919081815260200182805460018160011615610100020316600290048015610d965780601f10610d6b57610100808354040283529160200191610d96565b820191906000526020600020905b815481529060010190602001808311610d7957829003601f168201915b505050505092509450945094509450610db8565b8080600101915050610b03565b5b5092959194509250565b60016020528060005260406000206000915054906101000a900473ffffffffffffffffffffffffffffffffffffffff1681565b600281815481101515610e0457fe5b90600052602060002090600602016000915090508060000160009054906101000a900473ffffffffffffffffffffffffffffffffffffffff16908060010190806002019080600301908060040154908060050154905086565b6000806000806000803373ffffffffffffffffffffffffffffffffffffffff1673ffffffffffffffffffffffffffffffffffffffff16815260200190815260200160002060020160009054906101000a900460ff161515610ebd57600080fd5b610ec687611afd565b15156111ec5742925033866000803373ffffffffffffffffffffffffffffffffffffffff1673ffffffffffffffffffffffffffffffffffffffff168152602001908152602001600020600001604051808473ffffffffffffffffffffffffffffffffffffffff1673ffffffffffffffffffffffffffffffffffffffff166c0100000000000000000000000002815260140183805190602001908083835b602083101515610f885780518252602082019150602081019050602083039250610f63565b6001836020036101000a038019825116818451168082178552505050505050905001828054600181600116156101000203166002900480156110015780601f10610fdf576101008083540402835291820191611001565b820191906000526020600020905b815481529060010190602001808311610fed575b505093505050506040518091039020915060016002805480600101828161102891906122ca565b9160005260206000209060060201600060c0604051908101604052803373ffffffffffffffffffffffffffffffffffffffff1681526020018b81526020018c81526020018a81526020018881526020018760001916815250909190915060008201518160000160006101000a81548173ffffffffffffffffffffffffffffffffffffffff021916908373ffffffffffffffffffffffffffffffffffffffff16021790555060208201518160010190805190602001906110e89291906122fc565b5060408201518160020190805190602001906111059291906122fc565b5060608201518160030190805190602001906111229291906122fc565b506080820151816004015560a082015181600501906000191690555050039050336003600083815260200190815260200160002060006101000a81548173ffffffffffffffffffffffffffffffffffffffff021916908373ffffffffffffffffffffffffffffffffffffffff160217905550600460003373ffffffffffffffffffffffffffffffffffffffff1673ffffffffffffffffffffffffffffffffffffffff16815260200190815260200160002060008154809291906001019190505550600193506111f1565b600093505b5050509392505050565b61127584848080601f016020809104026020016040519081016040528093929190818152602001838380828437820191505050505050600188888080601f016020809104026020016040519081016040528093929190818152602001838380828437820191505050505050611c329092919063ffffffff16565b6000803373ffffffffffffffffffffffffffffffffffffffff1673ffffffffffffffffffffffffffffffffffffffff16815260200190815260200160002060000190805190602001906112c992919061237c565b5081816000803373ffffffffffffffffffffffffffffffffffffffff1673ffffffffffffffffffffffffffffffffffffffff168152602001908152602001600020600101919061131a9291906123fc565b5060016000803373ffffffffffffffffffffffffffffffffffffffff1673ffffffffffffffffffffffffffffffffffffffff16815260200190815260200160002060020160006101000a81548160ff02191690831515021790555033600160006113f487878080601f01602080910402602001604051908101604052809392919081815260200183838082843782019150505050505060018b8b8080601f016020809104026020016040519081016040528093929190818152602001838380828437820191505050505050611c329092919063ffffffff16565b6040518082805190602001908083835b6020831015156114295780518252602082019150602081019050602083039250611404565b6001836020036101000a03801982511681845116808217855250505050505090500191505060405180910390206000191660001916815260200190815260200160002060006101000a81548173ffffffffffffffffffffffffffffffffffffffff021916908373ffffffffffffffffffffffffffffffffffffffff160217905550505050505050565b60036020528060005260406000206000915054906101000a900473ffffffffffffffffffffffffffffffffffffffff1681565b60006114ef6122b6565b6114f76122b6565b6114ff6122b6565b60008090505b6002805490508110156118545760028181548110151561152157fe5b9060005260206000209060060201600101604051808280546001816001161561010002031660029004801561158d5780601f1061156b57610100808354040283529182019161158d565b820191906000526020600020905b815481529060010190602001808311611579575b50509150506040518091039020600019168787604051808383808284378201915050925050506040518091039020600019161415611847576002818154811015156115d457fe5b906000526020600020906006020160000160009054906101000a900473ffffffffffffffffffffffffffffffffffffffff1660028281548110151561161557fe5b906000526020600020906006020160020160028381548110151561163557fe5b906000526020600020906006020160010160028481548110151561165557fe5b9060005260206000209060060201600301828054600181600116156101000203166002900480601f0160208091040260200160405190810160405280929190818152602001828054600181600116156101000203166002900480156116fb5780601f106116d0576101008083540402835291602001916116fb565b820191906000526020600020905b8154815290600101906020018083116116de57829003601f168201915b50505050509250818054600181600116156101000203166002900480601f0160208091040260200160405190810160405280929190818152602001828054600181600116156101000203166002900480156117975780601f1061176c57610100808354040283529160200191611797565b820191906000526020600020905b81548152906001019060200180831161177a57829003601f168201915b50505050509150808054600181600116156101000203166002900480601f0160208091040260200160405190810160405280929190818152602001828054600181600116156101000203166002900480156118335780601f1061180857610100808354040283529160200191611833565b820191906000526020600020905b81548152906001019060200180831161181657829003601f168201915b505050505090509450945094509450611855565b8080600101915050611505565b5b5092959194509250565b61186761247c565b61186f6122b6565b6118776122b6565b600061188161247c565b6001600088886040518083838082843782019150509250505060405180910390206000191660001916815260200190815260200160002060009054906101000a900473ffffffffffffffffffffffffffffffffffffffff1691506118e482612188565b9050806000808473ffffffffffffffffffffffffffffffffffffffff1673ffffffffffffffffffffffffffffffffffffffff1681526020019081526020016000206000016000808573ffffffffffffffffffffffffffffffffffffffff1673ffffffffffffffffffffffffffffffffffffffff168152602001908152602001600020600101818054600181600116156101000203166002900480601f0160208091040260200160405190810160405280929190818152602001828054600181600116156101000203166002900480156119fe5780601f106119d3576101008083540402835291602001916119fe565b820191906000526020600020905b8154815290600101906020018083116119e157829003601f168201915b50505050509150808054600181600116156101000203166002900480601f016020809104026020016040519081016040528092919081815260200182805460018160011615610100020316600290048015611a9a5780601f10611a6f57610100808354040283529160200191611a9a565b820191906000526020600020905b815481529060010190602001808311611a7d57829003601f168201915b5050505050905094509450945050509250925092565b6000602052806000526040600020600091509050806000019080600101908060020160009054906101000a900460ff16905083565b60046020528060005260406000206000915090505481565b6000806000836040518082805190602001908083835b602083101515611b385780518252602082019150602081019050602083039250611b13565b6001836020036101000a03801982511681845116808217855250505050505090500191505060405180910390209150600090505b600280549050811015611c2657600281815481101515611b8857fe5b90600052602060002090600602016002016040518082805460018160011615610100020316600290048015611bf45780601f10611bd2576101008083540402835291820191611bf4565b820191906000526020600020905b815481529060010190602001808311611be0575b505091505060405180910390206000191682600019161415611c195760019250611c2b565b8080600101915050611b6c565b600092505b5050919050565b611c3a6122b6565b611c426122b6565b611c4a612490565b611c52612490565b611c5a612490565b611c626122b6565b611c6a612490565b6000808915611f17576040805190810160405280600181526020017f200000000000000000000000000000000000000000000000000000000000000081525097508796508b95508a94508451875187510101604051805910611cc95750595b9080825280601f01601f1916602001820160405250935083925060009150600090505b8551811015611d9f578581815181101515611d0357fe5b9060200101517f010000000000000000000000000000000000000000000000000000000000000090047f0100000000000000000000000000000000000000000000000000000000000000028383806001019450815181101515611d6257fe5b9060200101907effffffffffffffffffffffffffffffffffffffffffffffffffffffffffffff1916908160001a9053508080600101915050611cec565b600090505b8651811015611e57578681815181101515611dbb57fe5b9060200101517f010000000000000000000000000000000000000000000000000000000000000090047f0100000000000000000000000000000000000000000000000000000000000000028383806001019450815181101515611e1a57fe5b9060200101907effffffffffffffffffffffffffffffffffffffffffffffffffffffffffffff1916908160001a9053508080600101915050611da4565b600090505b8451811015611f0f578481815181101515611e7357fe5b9060200101517f010000000000000000000000000000000000000000000000000000000000000090047f0100000000000000000000000000000000000000000000000000000000000000028383806001019450815181101515611ed257fe5b9060200101907effffffffffffffffffffffffffffffffffffffffffffffffffffffffffffff1916908160001a9053508080600101915050611e5c565b829850612179565b8b95508a94508451865101604051805910611f2f5750595b9080825280601f01601f1916602001820160405250935083925060009150600090505b8551811015612005578581815181101515611f6957fe5b9060200101517f010000000000000000000000000000000000000000000000000000000000000090047f0100000000000000000000000000000000000000000000000000000000000000028383806001019450815181101515611fc857fe5b9060200101907effffffffffffffffffffffffffffffffffffffffffffffffffffffffffffff1916908160001a9053508080600101915050611f52565b600090505b86518110156120bd57868181518110151561202157fe5b9060200101517f010000000000000000000000000000000000000000000000000000000000000090047f010000000000000000000000000000000000000000000000000000000000000002838380600101945081518110151561208057fe5b9060200101907effffffffffffffffffffffffffffffffffffffffffffffffffffffffffffff1916908160001a905350808060010191505061200a565b600090505b84518110156121755784818151811015156120d957fe5b9060200101517f010000000000000000000000000000000000000000000000000000000000000090047f010000000000000000000000000000000000000000000000000000000000000002838380600101945081518110151561213857fe5b9060200101907effffffffffffffffffffffffffffffffffffffffffffffffffffffffffffff1916908160001a90535080806001019150506120c2565b8298505b50505050505050509392505050565b61219061247c565b61219861247c565b600080600460008673ffffffffffffffffffffffffffffffffffffffff1673ffffffffffffffffffffffffffffffffffffffff168152602001908152602001600020546040518059106121e85750595b9080825280602002602001820160405250925060009150600090505b6002805490508110156122ab578473ffffffffffffffffffffffffffffffffffffffff166003600083815260200190815260200160002060009054906101000a900473ffffffffffffffffffffffffffffffffffffffff1673ffffffffffffffffffffffffffffffffffffffff16141561229e5780838381518110151561228757fe5b906020019060200201818152505081806001019250505b8080600101915050612204565b829350505050919050565b602060405190810160405280600081525090565b8154818355818115116122f7576006028160060283600052602060002091820191016122f691906124a4565b5b505050565b828054600181600116156101000203166002900490600052602060002090601f016020900481019282601f1061233d57805160ff191683800117855561236b565b8280016001018555821561236b579182015b8281111561236a57825182559160200191906001019061234f565b5b509050612378919061252a565b5090565b828054600181600116156101000203166002900490600052602060002090601f016020900481019282601f106123bd57805160ff19168380011785556123eb565b828001600101855582156123eb579182015b828111156123ea5782518255916020019190600101906123cf565b5b5090506123f8919061252a565b5090565b828054600181600116156101000203166002900490600052602060002090601f016020900481019282601f1061243d57803560ff191683800117855561246b565b8280016001018555821561246b579182015b8281111561246a57823582559160200191906001019061244f565b5b509050612478919061252a565b5090565b602060405190810160405280600081525090565b602060405190810160405280600081525090565b61252791905b8082111561252357600080820160006101000a81549073ffffffffffffffffffffffffffffffffffffffff02191690556001820160006124ea919061254f565b6002820160006124fa919061254f565b60038201600061250a919061254f565b60048201600090556005820160009055506006016124aa565b5090565b90565b61254c91905b80821115612548576000816000905550600101612530565b5090565b90565b50805460018160011615610100020316600290046000825580601f106125755750612594565b601f016020900490600052602060002090810190612593919061252a565b5b505600a165627a7a723058205c74a7fd853722983d66b968cbd7ab1e240f75eb95658970ebd5bcccb82cb4780029",
  "source": "pragma solidity ^0.4.19;\n\nimport './authors.sol';\n\ncontract IPFS is Authors{\n\n   struct Book {\n        address authorAddress;\n        string title;\n        string bookHash; //ipfs book hash\n        string thumbHash; //ipfs thumbnail hash\n        uint timestamp; //Time of publishing\n        bytes32 IPPR; //Interplanetary Publishing Reference\n    }\n\n    Book[] public books;\n\n    mapping (uint => address) public BookToOwner;\n    mapping (address => uint) public OwnerBookCount;\n\n    function addBook(string _bookHash, string _title, string _thumbHash) public returns (bool success) {\n        //Check if author is registered\n        require(authors[msg.sender].registered);\n        //Check if book exists on contract\n        if (!_bookExists(_bookHash)) {\n            uint _timestamp = now;\n            bytes32 _IPPR = keccak256(msg.sender, _title, authors[msg.sender].name);\n            uint id = books.push(Book(msg.sender, _title, _bookHash, _thumbHash, _timestamp, _IPPR))-1;\n            BookToOwner[id] = msg.sender;\n            OwnerBookCount[msg.sender]++; ///CONVERT TO SAFEMATH\n            return true;\n        } else {\n           return false;\n        }\n    }\n\n    function _bookExists(string _bookHash) internal view returns (bool) {\n        bytes32 check = keccak256(_bookHash);\n        for (uint i = 0; i < books.length; i++) {\n           if (check == keccak256(books[i].bookHash)) return true;\n        }\n        return false;\n    }\n\n    function getBooksByAuthor(address _author) internal view returns (uint[]) {\n        uint[] memory result = new uint[](OwnerBookCount[_author]);\n        uint counter = 0;\n        for (uint i = 0; i < books.length; i++) { //CONVERT TO SAFEMATH\n          if (BookToOwner[i] == _author) {\n            result[counter] = i;\n            counter++; ///CONVERT TO SAFEMATH\n          }\n        }\n        return result;\n    }\n\n    function getBooksByAuthorName(string _author) external view returns (uint[], string, string) {\n        address author = address(authorAddresses[keccak256(_author)]);\n        uint[] memory getBooks = getBooksByAuthor(author);\n        return(getBooks, authors[author].name, authors[author].email);\n    }\n\n    function getBookByTitle(string _title) external view returns (address author, string bookHash, string title, string thumbHash) {\n        for (uint i = 0; i < books.length; i++) {\n         if (keccak256(_title) == keccak256(books[i].title)) return (books[i].authorAddress, books[i].bookHash, books[i].title, books[i].thumbHash);\n        }\n    }\n\n    function getBookByHash(string _bookHash) external view returns (string bookHash, string title, address author, bytes32 IPPR) {\n        for (uint i = 0; i < books.length; i++) {\n         if (keccak256(_bookHash) == keccak256(books[i].bookHash)) return (books[i].bookHash, books[i].title, books[i].authorAddress, books[i].IPPR);\n        }\n    }\n}\n",
  "sourcePath": "/home/altstreet/Documents/ethreader/contracts/ipfs.sol",
  "compiler": {
    "name": "solc",
    "version": "0.4.19+commit.c4cbbb05.Emscripten.clang"
  },
  "schemaVersion": "2.0.0",
  "updatedAt": "2018-03-29T06:13:28.007Z"
}