{
  "contractName": "IPFS",
  "abi": [
    {
      "constant": true,
      "inputs": [
        {
          "name": "",
          "type": "uint256"
        }
      ],
      "name": "books",
      "outputs": [
        {
          "name": "author",
          "type": "address"
        },
        {
          "name": "title",
          "type": "string"
        },
        {
          "name": "bookHash",
          "type": "string"
        },
        {
          "name": "thumbHash",
          "type": "string"
        },
        {
          "name": "timestamp",
          "type": "uint256"
        }
      ],
      "payable": false,
      "stateMutability": "view",
      "type": "function"
    },
    {
      "constant": true,
      "inputs": [
        {
          "name": "",
          "type": "uint256"
        }
      ],
      "name": "BookToOwner",
      "outputs": [
        {
          "name": "",
          "type": "address"
        }
      ],
      "payable": false,
      "stateMutability": "view",
      "type": "function"
    },
    {
      "constant": true,
      "inputs": [
        {
          "name": "",
          "type": "address"
        }
      ],
      "name": "OwnerBookCount",
      "outputs": [
        {
          "name": "",
          "type": "uint256"
        }
      ],
      "payable": false,
      "stateMutability": "view",
      "type": "function"
    },
    {
      "constant": false,
      "inputs": [
        {
          "name": "_bookHash",
          "type": "string"
        },
        {
          "name": "_title",
          "type": "string"
        },
        {
          "name": "_thumbHash",
          "type": "string"
        }
      ],
      "name": "addBook",
      "outputs": [],
      "payable": false,
      "stateMutability": "nonpayable",
      "type": "function"
    },
    {
      "constant": true,
      "inputs": [
        {
          "name": "_author",
          "type": "address"
        }
      ],
      "name": "getBooksByAuthor",
      "outputs": [
        {
          "name": "",
          "type": "uint256[]"
        }
      ],
      "payable": false,
      "stateMutability": "view",
      "type": "function"
    },
    {
      "constant": true,
      "inputs": [
        {
          "name": "_title",
          "type": "string"
        }
      ],
      "name": "getBookByTitle",
      "outputs": [
        {
          "name": "author",
          "type": "address"
        },
        {
          "name": "bookHash",
          "type": "string"
        },
        {
          "name": "title",
          "type": "string"
        },
        {
          "name": "thumbHash",
          "type": "string"
        }
      ],
      "payable": false,
      "stateMutability": "view",
      "type": "function"
    }
  ],
  "bytecode": "0x6060604052341561000f57600080fd5b610f5a8061001e6000396000f300606060405260043610610078576000357c0100000000000000000000000000000000000000000000000000000000900463ffffffff168063687440461461007d57806369c4682614610282578063960a72ab146103655780639e08c566146103f35780639f40eb5914610456578063c8bc8cae14610608575b600080fd5b341561008857600080fd5b61009e6004808035906020019091905050610655565b604051808673ffffffffffffffffffffffffffffffffffffffff1673ffffffffffffffffffffffffffffffffffffffff1681526020018060200180602001806020018581526020018481038452888181546001816001161561010002031660029004815260200191508054600181600116156101000203166002900480156101675780601f1061013c57610100808354040283529160200191610167565b820191906000526020600020905b81548152906001019060200180831161014a57829003601f168201915b50508481038352878181546001816001161561010002031660029004815260200191508054600181600116156101000203166002900480156101ea5780601f106101bf576101008083540402835291602001916101ea565b820191906000526020600020905b8154815290600101906020018083116101cd57829003601f168201915b505084810382528681815460018160011615610100020316600290048152602001915080546001816001161561010002031660029004801561026d5780601f106102425761010080835404028352916020019161026d565b820191906000526020600020905b81548152906001019060200180831161025057829003601f168201915b50509850505050505050505060405180910390f35b341561028d57600080fd5b610363600480803590602001908201803590602001908080601f0160208091040260200160405190810160405280939291908181526020018383808284378201915050505050509190803590602001908201803590602001908080601f0160208091040260200160405190810160405280939291908181526020018383808284378201915050505050509190803590602001908201803590602001908080601f016020809104026020016040519081016040528093929190818152602001838380828437820191505050505050919050506106b7565b005b341561037057600080fd5b61039c600480803573ffffffffffffffffffffffffffffffffffffffff16906020019091905050610876565b6040518080602001828103825283818151815260200191508051906020019060200280838360005b838110156103df5780820151818401526020810190506103c4565b505050509050019250505060405180910390f35b34156103fe57600080fd5b61041460048080359060200190919050506109a4565b604051808273ffffffffffffffffffffffffffffffffffffffff1673ffffffffffffffffffffffffffffffffffffffff16815260200191505060405180910390f35b341561046157600080fd5b610482600480803590602001908201803590602001919091929050506109d7565b604051808573ffffffffffffffffffffffffffffffffffffffff1673ffffffffffffffffffffffffffffffffffffffff168152602001806020018060200180602001848103845287818151815260200191508051906020019080838360005b838110156104fc5780820151818401526020810190506104e1565b50505050905090810190601f1680156105295780820380516001836020036101000a031916815260200191505b50848103835286818151815260200191508051906020019080838360005b83811015610562578082015181840152602081019050610547565b50505050905090810190601f16801561058f5780820380516001836020036101000a031916815260200191505b50848103825285818151815260200191508051906020019080838360005b838110156105c85780820151818401526020810190506105ad565b50505050905090810190601f1680156105f55780820380516001836020036101000a031916815260200191505b5097505050505050505060405180910390f35b341561061357600080fd5b61063f600480803573ffffffffffffffffffffffffffffffffffffffff16906020019091905050610d51565b6040518082815260200191505060405180910390f35b60008181548110151561066457fe5b90600052602060002090600502016000915090508060000160009054906101000a900473ffffffffffffffffffffffffffffffffffffffff16908060010190806002019080600301908060040154905085565b60006001600080548060010182816106cf9190610d69565b9160005260206000209060050201600060a0604051908101604052803373ffffffffffffffffffffffffffffffffffffffff16815260200188815260200189815260200187815260200142815250909190915060008201518160000160006101000a81548173ffffffffffffffffffffffffffffffffffffffff021916908373ffffffffffffffffffffffffffffffffffffffff1602179055506020820151816001019080519060200190610785929190610d9b565b5060408201518160020190805190602001906107a2929190610d9b565b5060608201518160030190805190602001906107bf929190610d9b565b50608082015181600401555050039050336001600083815260200190815260200160002060006101000a81548173ffffffffffffffffffffffffffffffffffffffff021916908373ffffffffffffffffffffffffffffffffffffffff160217905550600260003373ffffffffffffffffffffffffffffffffffffffff1673ffffffffffffffffffffffffffffffffffffffff1681526020019081526020016000206000815480929190600101919050555050505050565b61087e610e1b565b610886610e1b565b600080600260008673ffffffffffffffffffffffffffffffffffffffff1673ffffffffffffffffffffffffffffffffffffffff168152602001908152602001600020546040518059106108d65750595b9080825280602002602001820160405250925060009150600090505b600080549050811015610999578473ffffffffffffffffffffffffffffffffffffffff166001600083815260200190815260200160002060009054906101000a900473ffffffffffffffffffffffffffffffffffffffff1673ffffffffffffffffffffffffffffffffffffffff16141561098c5780838381518110151561097557fe5b906020019060200201818152505081806001019250505b80806001019150506108f2565b829350505050919050565b60016020528060005260406000206000915054906101000a900473ffffffffffffffffffffffffffffffffffffffff1681565b60006109e1610e2f565b6109e9610e2f565b6109f1610e2f565b60008090505b600080549050811015610d4657600081815481101515610a1357fe5b90600052602060002090600502016001016040518082805460018160011615610100020316600290048015610a7f5780601f10610a5d576101008083540402835291820191610a7f565b820191906000526020600020905b815481529060010190602001808311610a6b575b50509150506040518091039020600019168787604051808383808284378201915050925050506040518091039020600019161415610d3957600081815481101515610ac657fe5b906000526020600020906005020160000160009054906101000a900473ffffffffffffffffffffffffffffffffffffffff16600082815481101515610b0757fe5b9060005260206000209060050201600201600083815481101515610b2757fe5b9060005260206000209060050201600101600084815481101515610b4757fe5b9060005260206000209060050201600301828054600181600116156101000203166002900480601f016020809104026020016040519081016040528092919081815260200182805460018160011615610100020316600290048015610bed5780601f10610bc257610100808354040283529160200191610bed565b820191906000526020600020905b815481529060010190602001808311610bd057829003601f168201915b50505050509250818054600181600116156101000203166002900480601f016020809104026020016040519081016040528092919081815260200182805460018160011615610100020316600290048015610c895780601f10610c5e57610100808354040283529160200191610c89565b820191906000526020600020905b815481529060010190602001808311610c6c57829003601f168201915b50505050509150808054600181600116156101000203166002900480601f016020809104026020016040519081016040528092919081815260200182805460018160011615610100020316600290048015610d255780601f10610cfa57610100808354040283529160200191610d25565b820191906000526020600020905b815481529060010190602001808311610d0857829003601f168201915b505050505090509450945094509450610d47565b80806001019150506109f7565b5b5092959194509250565b60026020528060005260406000206000915090505481565b815481835581811511610d9657600502816005028360005260206000209182019101610d959190610e43565b5b505050565b828054600181600116156101000203166002900490600052602060002090601f016020900481019282601f10610ddc57805160ff1916838001178555610e0a565b82800160010185558215610e0a579182015b82811115610e09578251825591602001919060010190610dee565b5b509050610e179190610ec1565b5090565b602060405190810160405280600081525090565b602060405190810160405280600081525090565b610ebe91905b80821115610eba57600080820160006101000a81549073ffffffffffffffffffffffffffffffffffffffff0219169055600182016000610e899190610ee6565b600282016000610e999190610ee6565b600382016000610ea99190610ee6565b600482016000905550600501610e49565b5090565b90565b610ee391905b80821115610edf576000816000905550600101610ec7565b5090565b90565b50805460018160011615610100020316600290046000825580601f10610f0c5750610f2b565b601f016020900490600052602060002090810190610f2a9190610ec1565b5b505600a165627a7a72305820167232738795c44f317decba2374cd7bcdb1500065da855555631ab0b8b664230029",
  "source": "pragma solidity ^0.4.19;\n\ncontract IPFS {\n\n   struct Book {\n        address author;\n        string title;\n        string bookHash; //ipfs book hash\n        string thumbHash; //ipfs thumbnail hash\n        uint timestamp;\n    }\n\n    Book[] public books;\n\n    mapping (uint => address) public BookToOwner;\n    mapping (address => uint) public OwnerBookCount;\n\n    function addBook(string _bookHash, string _title, string _thumbHash) public {\n        uint id = books.push(Book(msg.sender, _title, _bookHash, _thumbHash, now))-1;\n        BookToOwner[id] = msg.sender;\n        OwnerBookCount[msg.sender]++; ///CONVERT TO SAFEMATH\n    }\n\n    function getBooksByAuthor(address _author) external view returns (uint[]) {\n        uint[] memory result = new uint[](OwnerBookCount[_author]);\n        uint counter = 0;\n        for (uint i = 0; i < books.length; i++) { //CONVERT TO SAFEMATH\n          if (BookToOwner[i] == _author) {\n            result[counter] = i;\n            counter++; ///CONVERT TO SAFEMATH\n          }\n        }\n        return result;\n    }\n\n    function getBookByTitle(string _title) external view returns (address author, string bookHash, string title, string thumbHash) {\n        for (uint i = 0; i < books.length; i++) {\n         if (keccak256(_title) == keccak256(books[i].title)) return (books[i].author, books[i].bookHash, books[i].title, books[i].thumbHash);\n        }\n    }\n}\n",
  "sourcePath": "/home/altstreet/Documents/ethreader/contracts/ipfs.sol",
  "compiler": {
    "name": "solc",
    "version": "0.4.19+commit.c4cbbb05.Emscripten.clang"
  },
  "schemaVersion": "2.0.0",
  "updatedAt": "2018-03-23T17:35:46.454Z"
}