{
  "contractName": "IPFS",
  "abi": [
    {
      "constant": true,
      "inputs": [
        {
          "name": "",
          "type": "bytes32"
        }
      ],
      "name": "authorAddresses",
      "outputs": [
        {
          "name": "",
          "type": "address"
        }
      ],
      "payable": false,
      "stateMutability": "view",
      "type": "function"
    },
    {
      "constant": true,
      "inputs": [
        {
          "name": "",
          "type": "uint256"
        }
      ],
      "name": "books",
      "outputs": [
        {
          "name": "authorAddress",
          "type": "address"
        },
        {
          "name": "title",
          "type": "string"
        },
        {
          "name": "bookHash",
          "type": "string"
        },
        {
          "name": "thumbHash",
          "type": "string"
        },
        {
          "name": "timestamp",
          "type": "uint256"
        },
        {
          "name": "IPPR",
          "type": "bytes32"
        }
      ],
      "payable": false,
      "stateMutability": "view",
      "type": "function"
    },
    {
      "constant": false,
      "inputs": [
        {
          "name": "_firstName",
          "type": "string"
        },
        {
          "name": "_lastName",
          "type": "string"
        },
        {
          "name": "_email",
          "type": "string"
        }
      ],
      "name": "newAuthor",
      "outputs": [],
      "payable": false,
      "stateMutability": "nonpayable",
      "type": "function"
    },
    {
      "constant": true,
      "inputs": [
        {
          "name": "",
          "type": "uint256"
        }
      ],
      "name": "BookToOwner",
      "outputs": [
        {
          "name": "",
          "type": "address"
        }
      ],
      "payable": false,
      "stateMutability": "view",
      "type": "function"
    },
    {
      "constant": true,
      "inputs": [
        {
          "name": "",
          "type": "address"
        }
      ],
      "name": "authors",
      "outputs": [
        {
          "name": "firstName",
          "type": "string"
        },
        {
          "name": "lastName",
          "type": "string"
        },
        {
          "name": "fullName",
          "type": "string"
        },
        {
          "name": "email",
          "type": "string"
        },
        {
          "name": "registered",
          "type": "bool"
        }
      ],
      "payable": false,
      "stateMutability": "view",
      "type": "function"
    },
    {
      "constant": true,
      "inputs": [
        {
          "name": "",
          "type": "address"
        }
      ],
      "name": "OwnerBookCount",
      "outputs": [
        {
          "name": "",
          "type": "uint256"
        }
      ],
      "payable": false,
      "stateMutability": "view",
      "type": "function"
    },
    {
      "constant": false,
      "inputs": [
        {
          "name": "_bookHash",
          "type": "string"
        },
        {
          "name": "_title",
          "type": "string"
        },
        {
          "name": "_thumbHash",
          "type": "string"
        }
      ],
      "name": "addBook",
      "outputs": [
        {
          "name": "success",
          "type": "bool"
        }
      ],
      "payable": false,
      "stateMutability": "nonpayable",
      "type": "function"
    },
    {
      "constant": true,
      "inputs": [
        {
          "name": "_author",
          "type": "string"
        }
      ],
      "name": "getBooksByAuthorName",
      "outputs": [
        {
          "name": "",
          "type": "uint256[]"
        },
        {
          "name": "",
          "type": "string"
        },
        {
          "name": "",
          "type": "string"
        }
      ],
      "payable": false,
      "stateMutability": "view",
      "type": "function"
    },
    {
      "constant": true,
      "inputs": [
        {
          "name": "_title",
          "type": "string"
        }
      ],
      "name": "getBookByTitle",
      "outputs": [
        {
          "name": "author",
          "type": "address"
        },
        {
          "name": "bookHash",
          "type": "string"
        },
        {
          "name": "title",
          "type": "string"
        },
        {
          "name": "thumbHash",
          "type": "string"
        }
      ],
      "payable": false,
      "stateMutability": "view",
      "type": "function"
    },
    {
      "constant": true,
      "inputs": [
        {
          "name": "_bookHash",
          "type": "string"
        }
      ],
      "name": "getBookByHash",
      "outputs": [
        {
          "name": "bookHash",
          "type": "string"
        },
        {
          "name": "title",
          "type": "string"
        },
        {
          "name": "author",
          "type": "address"
        },
        {
          "name": "IPPR",
          "type": "bytes32"
        }
      ],
      "payable": false,
      "stateMutability": "view",
      "type": "function"
    }
  ],
  "bytecode": "0x6060604052341561000f57600080fd5b6127818061001e6000396000f3006060604052600436106100a4576000357c0100000000000000000000000000000000000000000000000000000000900463ffffffff168063067a1a19146100a95780632c1f96ef146101fe578063687440461461026557806369c46826146104795780636b68c982146105745780639e08c566146105ca5780639f40eb591461062d578063a11657ae146107df578063bf9c50011461093a578063c8bc8cae14610baf575b600080fd5b34156100b457600080fd5b6100d560048080359060200190820180359060200191909192905050610bfc565b6040518080602001806020018573ffffffffffffffffffffffffffffffffffffffff1673ffffffffffffffffffffffffffffffffffffffff1681526020018460001916600019168152602001838103835287818151815260200191508051906020019080838360005b8381101561015957808201518184015260208101905061013e565b50505050905090810190601f1680156101865780820380516001836020036101000a031916815260200191505b50838103825286818151815260200191508051906020019080838360005b838110156101bf5780820151818401526020810190506101a4565b50505050905090810190601f1680156101ec5780820380516001836020036101000a031916815260200191505b50965050505050505060405180910390f35b341561020957600080fd5b610223600480803560001916906020019091905050610ed4565b604051808273ffffffffffffffffffffffffffffffffffffffff1673ffffffffffffffffffffffffffffffffffffffff16815260200191505060405180910390f35b341561027057600080fd5b6102866004808035906020019091905050610f07565b604051808773ffffffffffffffffffffffffffffffffffffffff1673ffffffffffffffffffffffffffffffffffffffff168152602001806020018060200180602001868152602001856000191660001916815260200184810384528981815460018160011615610100020316600290048152602001915080546001816001161561010002031660029004801561035d5780601f106103325761010080835404028352916020019161035d565b820191906000526020600020905b81548152906001019060200180831161034057829003601f168201915b50508481038352888181546001816001161561010002031660029004815260200191508054600181600116156101000203166002900480156103e05780601f106103b5576101008083540402835291602001916103e0565b820191906000526020600020905b8154815290600101906020018083116103c357829003601f168201915b50508481038252878181546001816001161561010002031660029004815260200191508054600181600116156101000203166002900480156104635780601f1061043857610100808354040283529160200191610463565b820191906000526020600020905b81548152906001019060200180831161044657829003601f168201915b5050995050505050505050505060405180910390f35b341561048457600080fd5b61055a600480803590602001908201803590602001908080601f0160208091040260200160405190810160405280939291908181526020018383808284378201915050505050509190803590602001908201803590602001908080601f0160208091040260200160405190810160405280939291908181526020018383808284378201915050505050509190803590602001908201803590602001908080601f01602080910402602001604051908101604052809392919081815260200183838082843782019150505050505091905050610f6f565b604051808215151515815260200191505060405180910390f35b341561057f57600080fd5b6105c8600480803590602001908201803590602001919091929080359060200190820180359060200191909192908035906020019082018035906020019190919290505061130d565b005b34156105d557600080fd5b6105eb6004808035906020019091905050611666565b604051808273ffffffffffffffffffffffffffffffffffffffff1673ffffffffffffffffffffffffffffffffffffffff16815260200191505060405180910390f35b341561063857600080fd5b61065960048080359060200190820180359060200191909192905050611699565b604051808573ffffffffffffffffffffffffffffffffffffffff1673ffffffffffffffffffffffffffffffffffffffff168152602001806020018060200180602001848103845287818151815260200191508051906020019080838360005b838110156106d35780820151818401526020810190506106b8565b50505050905090810190601f1680156107005780820380516001836020036101000a031916815260200191505b50848103835286818151815260200191508051906020019080838360005b8381101561073957808201518184015260208101905061071e565b50505050905090810190601f1680156107665780820380516001836020036101000a031916815260200191505b50848103825285818151815260200191508051906020019080838360005b8381101561079f578082015181840152602081019050610784565b50505050905090810190601f1680156107cc5780820380516001836020036101000a031916815260200191505b5097505050505050505060405180910390f35b34156107ea57600080fd5b61080b60048080359060200190820180359060200191909192905050611a13565b60405180806020018060200180602001848103845287818151815260200191508051906020019060200280838360005b8381101561085657808201518184015260208101905061083b565b50505050905001848103835286818151815260200191508051906020019080838360005b8381101561089557808201518184015260208101905061087a565b50505050905090810190601f1680156108c25780820380516001836020036101000a031916815260200191505b50848103825285818151815260200191508051906020019080838360005b838110156108fb5780820151818401526020810190506108e0565b50505050905090810190601f1680156109285780820380516001836020036101000a031916815260200191505b50965050505050505060405180910390f35b341561094557600080fd5b610971600480803573ffffffffffffffffffffffffffffffffffffffff16906020019091905050611c64565b60405180806020018060200180602001806020018615151515815260200185810385528a818154600181600116156101000203166002900481526020019150805460018160011615610100020316600290048015610a105780601f106109e557610100808354040283529160200191610a10565b820191906000526020600020905b8154815290600101906020018083116109f357829003601f168201915b5050858103845289818154600181600116156101000203166002900481526020019150805460018160011615610100020316600290048015610a935780601f10610a6857610100808354040283529160200191610a93565b820191906000526020600020905b815481529060010190602001808311610a7657829003601f168201915b5050858103835288818154600181600116156101000203166002900481526020019150805460018160011615610100020316600290048015610b165780601f10610aeb57610100808354040283529160200191610b16565b820191906000526020600020905b815481529060010190602001808311610af957829003601f168201915b5050858103825287818154600181600116156101000203166002900481526020019150805460018160011615610100020316600290048015610b995780601f10610b6e57610100808354040283529160200191610b99565b820191906000526020600020905b815481529060010190602001808311610b7c57829003601f168201915b5050995050505050505050505060405180910390f35b3415610bba57600080fd5b610be6600480803573ffffffffffffffffffffffffffffffffffffffff16906020019091905050611ca3565b6040518082815260200191505060405180910390f35b610c04612474565b610c0c612474565b60008060008090505b600280549050811015610ec957600281815481101515610c3157fe5b90600052602060002090600602016002016040518082805460018160011615610100020316600290048015610c9d5780601f10610c7b576101008083540402835291820191610c9d565b820191906000526020600020905b815481529060010190602001808311610c89575b50509150506040518091039020600019168787604051808383808284378201915050925050506040518091039020600019161415610ebc57600281815481101515610ce457fe5b9060005260206000209060060201600201600282815481101515610d0457fe5b9060005260206000209060060201600101600283815481101515610d2457fe5b906000526020600020906006020160000160009054906101000a900473ffffffffffffffffffffffffffffffffffffffff16600284815481101515610d6557fe5b906000526020600020906006020160050154838054600181600116156101000203166002900480601f016020809104026020016040519081016040528092919081815260200182805460018160011615610100020316600290048015610e0c5780601f10610de157610100808354040283529160200191610e0c565b820191906000526020600020905b815481529060010190602001808311610def57829003601f168201915b50505050509350828054600181600116156101000203166002900480601f016020809104026020016040519081016040528092919081815260200182805460018160011615610100020316600290048015610ea85780601f10610e7d57610100808354040283529160200191610ea8565b820191906000526020600020905b815481529060010190602001808311610e8b57829003601f168201915b505050505092509450945094509450610eca565b8080600101915050610c15565b5b5092959194509250565b60016020528060005260406000206000915054906101000a900473ffffffffffffffffffffffffffffffffffffffff1681565b600281815481101515610f1657fe5b90600052602060002090600602016000915090508060000160009054906101000a900473ffffffffffffffffffffffffffffffffffffffff16908060010190806002019080600301908060040154908060050154905086565b6000806000806000803373ffffffffffffffffffffffffffffffffffffffff1673ffffffffffffffffffffffffffffffffffffffff16815260200190815260200160002060040160009054906101000a900460ff161515610fcf57600080fd5b610fd887611cbb565b15156112fe5742925033866000803373ffffffffffffffffffffffffffffffffffffffff1673ffffffffffffffffffffffffffffffffffffffff168152602001908152602001600020600201604051808473ffffffffffffffffffffffffffffffffffffffff1673ffffffffffffffffffffffffffffffffffffffff166c0100000000000000000000000002815260140183805190602001908083835b60208310151561109a5780518252602082019150602081019050602083039250611075565b6001836020036101000a038019825116818451168082178552505050505050905001828054600181600116156101000203166002900480156111135780601f106110f1576101008083540402835291820191611113565b820191906000526020600020905b8154815290600101906020018083116110ff575b505093505050506040518091039020915060016002805480600101828161113a9190612488565b9160005260206000209060060201600060c0604051908101604052803373ffffffffffffffffffffffffffffffffffffffff1681526020018b81526020018c81526020018a81526020018881526020018760001916815250909190915060008201518160000160006101000a81548173ffffffffffffffffffffffffffffffffffffffff021916908373ffffffffffffffffffffffffffffffffffffffff16021790555060208201518160010190805190602001906111fa9291906124ba565b5060408201518160020190805190602001906112179291906124ba565b5060608201518160030190805190602001906112349291906124ba565b506080820151816004015560a082015181600501906000191690555050039050336003600083815260200190815260200160002060006101000a81548173ffffffffffffffffffffffffffffffffffffffff021916908373ffffffffffffffffffffffffffffffffffffffff160217905550600460003373ffffffffffffffffffffffffffffffffffffffff1673ffffffffffffffffffffffffffffffffffffffff1681526020019081526020016000206000815480929190600101919050555060019350611303565b600093505b5050509392505050565b85856000803373ffffffffffffffffffffffffffffffffffffffff1673ffffffffffffffffffffffffffffffffffffffff168152602001908152602001600020600001919061135d92919061253a565b5083836000803373ffffffffffffffffffffffffffffffffffffffff1673ffffffffffffffffffffffffffffffffffffffff16815260200190815260200160002060010191906113ae92919061253a565b5061142984848080601f016020809104026020016040519081016040528093929190818152602001838380828437820191505050505050600188888080601f016020809104026020016040519081016040528093929190818152602001838380828437820191505050505050611df09092919063ffffffff16565b6000803373ffffffffffffffffffffffffffffffffffffffff1673ffffffffffffffffffffffffffffffffffffffff168152602001908152602001600020600201908051906020019061147d9291906125ba565b5081816000803373ffffffffffffffffffffffffffffffffffffffff1673ffffffffffffffffffffffffffffffffffffffff16815260200190815260200160002060030191906114ce92919061253a565b5060016000803373ffffffffffffffffffffffffffffffffffffffff1673ffffffffffffffffffffffffffffffffffffffff16815260200190815260200160002060040160006101000a81548160ff02191690831515021790555033600160006115a887878080601f01602080910402602001604051908101604052809392919081815260200183838082843782019150505050505060018b8b8080601f016020809104026020016040519081016040528093929190818152602001838380828437820191505050505050611df09092919063ffffffff16565b6040518082805190602001908083835b6020831015156115dd57805182526020820191506020810190506020830392506115b8565b6001836020036101000a03801982511681845116808217855250505050505090500191505060405180910390206000191660001916815260200190815260200160002060006101000a81548173ffffffffffffffffffffffffffffffffffffffff021916908373ffffffffffffffffffffffffffffffffffffffff160217905550505050505050565b60036020528060005260406000206000915054906101000a900473ffffffffffffffffffffffffffffffffffffffff1681565b60006116a3612474565b6116ab612474565b6116b3612474565b60008090505b600280549050811015611a08576002818154811015156116d557fe5b906000526020600020906006020160010160405180828054600181600116156101000203166002900480156117415780601f1061171f576101008083540402835291820191611741565b820191906000526020600020905b81548152906001019060200180831161172d575b505091505060405180910390206000191687876040518083838082843782019150509250505060405180910390206000191614156119fb5760028181548110151561178857fe5b906000526020600020906006020160000160009054906101000a900473ffffffffffffffffffffffffffffffffffffffff166002828154811015156117c957fe5b90600052602060002090600602016002016002838154811015156117e957fe5b906000526020600020906006020160010160028481548110151561180957fe5b9060005260206000209060060201600301828054600181600116156101000203166002900480601f0160208091040260200160405190810160405280929190818152602001828054600181600116156101000203166002900480156118af5780601f10611884576101008083540402835291602001916118af565b820191906000526020600020905b81548152906001019060200180831161189257829003601f168201915b50505050509250818054600181600116156101000203166002900480601f01602080910402602001604051908101604052809291908181526020018280546001816001161561010002031660029004801561194b5780601f106119205761010080835404028352916020019161194b565b820191906000526020600020905b81548152906001019060200180831161192e57829003601f168201915b50505050509150808054600181600116156101000203166002900480601f0160208091040260200160405190810160405280929190818152602001828054600181600116156101000203166002900480156119e75780601f106119bc576101008083540402835291602001916119e7565b820191906000526020600020905b8154815290600101906020018083116119ca57829003601f168201915b505050505090509450945094509450611a09565b80806001019150506116b9565b5b5092959194509250565b611a1b61263a565b611a23612474565b611a2b612474565b6000611a3561263a565b6001600088886040518083838082843782019150509250505060405180910390206000191660001916815260200190815260200160002060009054906101000a900473ffffffffffffffffffffffffffffffffffffffff169150611a9882612346565b9050806000808473ffffffffffffffffffffffffffffffffffffffff1673ffffffffffffffffffffffffffffffffffffffff1681526020019081526020016000206002016000808573ffffffffffffffffffffffffffffffffffffffff1673ffffffffffffffffffffffffffffffffffffffff168152602001908152602001600020600301818054600181600116156101000203166002900480601f016020809104026020016040519081016040528092919081815260200182805460018160011615610100020316600290048015611bb25780601f10611b8757610100808354040283529160200191611bb2565b820191906000526020600020905b815481529060010190602001808311611b9557829003601f168201915b50505050509150808054600181600116156101000203166002900480601f016020809104026020016040519081016040528092919081815260200182805460018160011615610100020316600290048015611c4e5780601f10611c2357610100808354040283529160200191611c4e565b820191906000526020600020905b815481529060010190602001808311611c3157829003601f168201915b5050505050905094509450945050509250925092565b600060205280600052604060002060009150905080600001908060010190806002019080600301908060040160009054906101000a900460ff16905085565b60046020528060005260406000206000915090505481565b6000806000836040518082805190602001908083835b602083101515611cf65780518252602082019150602081019050602083039250611cd1565b6001836020036101000a03801982511681845116808217855250505050505090500191505060405180910390209150600090505b600280549050811015611de457600281815481101515611d4657fe5b90600052602060002090600602016002016040518082805460018160011615610100020316600290048015611db25780601f10611d90576101008083540402835291820191611db2565b820191906000526020600020905b815481529060010190602001808311611d9e575b505091505060405180910390206000191682600019161415611dd75760019250611de9565b8080600101915050611d2a565b600092505b5050919050565b611df8612474565b611e00612474565b611e0861264e565b611e1061264e565b611e1861264e565b611e20612474565b611e2861264e565b60008089156120d5576040805190810160405280600181526020017f200000000000000000000000000000000000000000000000000000000000000081525097508796508b95508a94508451875187510101604051805910611e875750595b9080825280601f01601f1916602001820160405250935083925060009150600090505b8551811015611f5d578581815181101515611ec157fe5b9060200101517f010000000000000000000000000000000000000000000000000000000000000090047f0100000000000000000000000000000000000000000000000000000000000000028383806001019450815181101515611f2057fe5b9060200101907effffffffffffffffffffffffffffffffffffffffffffffffffffffffffffff1916908160001a9053508080600101915050611eaa565b600090505b8651811015612015578681815181101515611f7957fe5b9060200101517f010000000000000000000000000000000000000000000000000000000000000090047f0100000000000000000000000000000000000000000000000000000000000000028383806001019450815181101515611fd857fe5b9060200101907effffffffffffffffffffffffffffffffffffffffffffffffffffffffffffff1916908160001a9053508080600101915050611f62565b600090505b84518110156120cd57848181518110151561203157fe5b9060200101517f010000000000000000000000000000000000000000000000000000000000000090047f010000000000000000000000000000000000000000000000000000000000000002838380600101945081518110151561209057fe5b9060200101907effffffffffffffffffffffffffffffffffffffffffffffffffffffffffffff1916908160001a905350808060010191505061201a565b829850612337565b8b95508a945084518651016040518059106120ed5750595b9080825280601f01601f1916602001820160405250935083925060009150600090505b85518110156121c357858181518110151561212757fe5b9060200101517f010000000000000000000000000000000000000000000000000000000000000090047f010000000000000000000000000000000000000000000000000000000000000002838380600101945081518110151561218657fe5b9060200101907effffffffffffffffffffffffffffffffffffffffffffffffffffffffffffff1916908160001a9053508080600101915050612110565b600090505b865181101561227b5786818151811015156121df57fe5b9060200101517f010000000000000000000000000000000000000000000000000000000000000090047f010000000000000000000000000000000000000000000000000000000000000002838380600101945081518110151561223e57fe5b9060200101907effffffffffffffffffffffffffffffffffffffffffffffffffffffffffffff1916908160001a90535080806001019150506121c8565b600090505b845181101561233357848181518110151561229757fe5b9060200101517f010000000000000000000000000000000000000000000000000000000000000090047f01000000000000000000000000000000000000000000000000000000000000000283838060010194508151811015156122f657fe5b9060200101907effffffffffffffffffffffffffffffffffffffffffffffffffffffffffffff1916908160001a9053508080600101915050612280565b8298505b50505050505050509392505050565b61234e61263a565b61235661263a565b600080600460008673ffffffffffffffffffffffffffffffffffffffff1673ffffffffffffffffffffffffffffffffffffffff168152602001908152602001600020546040518059106123a65750595b9080825280602002602001820160405250925060009150600090505b600280549050811015612469578473ffffffffffffffffffffffffffffffffffffffff166003600083815260200190815260200160002060009054906101000a900473ffffffffffffffffffffffffffffffffffffffff1673ffffffffffffffffffffffffffffffffffffffff16141561245c5780838381518110151561244557fe5b906020019060200201818152505081806001019250505b80806001019150506123c2565b829350505050919050565b602060405190810160405280600081525090565b8154818355818115116124b5576006028160060283600052602060002091820191016124b49190612662565b5b505050565b828054600181600116156101000203166002900490600052602060002090601f016020900481019282601f106124fb57805160ff1916838001178555612529565b82800160010185558215612529579182015b8281111561252857825182559160200191906001019061250d565b5b50905061253691906126e8565b5090565b828054600181600116156101000203166002900490600052602060002090601f016020900481019282601f1061257b57803560ff19168380011785556125a9565b828001600101855582156125a9579182015b828111156125a857823582559160200191906001019061258d565b5b5090506125b691906126e8565b5090565b828054600181600116156101000203166002900490600052602060002090601f016020900481019282601f106125fb57805160ff1916838001178555612629565b82800160010185558215612629579182015b8281111561262857825182559160200191906001019061260d565b5b50905061263691906126e8565b5090565b602060405190810160405280600081525090565b602060405190810160405280600081525090565b6126e591905b808211156126e157600080820160006101000a81549073ffffffffffffffffffffffffffffffffffffffff02191690556001820160006126a8919061270d565b6002820160006126b8919061270d565b6003820160006126c8919061270d565b6004820160009055600582016000905550600601612668565b5090565b90565b61270a91905b808211156127065760008160009055506001016126ee565b5090565b90565b50805460018160011615610100020316600290046000825580601f106127335750612752565b601f01602090049060005260206000209081019061275191906126e8565b5b505600a165627a7a72305820803bb431b83b7082f7a2e66f78fb97ea4a884a586b8a66d55a960572ca3735d00029",
  "source": "pragma solidity ^0.4.19;\n\nimport './authors.sol';\n\ncontract IPFS is Authors{\n\n   struct Book {\n        address authorAddress;\n        string title;\n        string bookHash; //ipfs book hash\n        string thumbHash; //ipfs thumbnail hash\n        uint timestamp; //Time of publishing\n        bytes32 IPPR; //Interplanetary Publishing Reference\n    }\n\n    Book[] public books;\n\n    mapping (uint => address) public BookToOwner;\n    mapping (address => uint) public OwnerBookCount;\n\n    function addBook(string _bookHash, string _title, string _thumbHash) public returns (bool success) {\n        //Check if author is registered\n        require(authors[msg.sender].registered);\n        //Check if book exists on contract\n        if (!_bookExists(_bookHash)) {\n            uint _timestamp = now;\n            bytes32 _IPPR = keccak256(msg.sender, _title, authors[msg.sender].fullName);\n            uint id = books.push(Book(msg.sender, _title, _bookHash, _thumbHash, _timestamp, _IPPR))-1;\n            BookToOwner[id] = msg.sender;\n            OwnerBookCount[msg.sender]++; ///CONVERT TO SAFEMATH\n            return true;\n        } else {\n           return false;\n        }\n    }\n\n    function _bookExists(string _bookHash) internal view returns (bool) {\n        bytes32 check = keccak256(_bookHash);\n        for (uint i = 0; i < books.length; i++) {\n           if (check == keccak256(books[i].bookHash)) return true;\n        }\n        return false;\n    }\n\n    function getBooksByAuthor(address _author) internal view returns (uint[]) {\n        uint[] memory result = new uint[](OwnerBookCount[_author]);\n        uint counter = 0;\n        for (uint i = 0; i < books.length; i++) { //CONVERT TO SAFEMATH\n          if (BookToOwner[i] == _author) {\n            result[counter] = i;\n            counter++; ///CONVERT TO SAFEMATH\n          }\n        }\n        return result;\n    }\n\n    function getBooksByAuthorName(string _author) external view returns (uint[], string, string) {\n        address author = address(authorAddresses[keccak256(_author)]);\n        uint[] memory getBooks = getBooksByAuthor(author);\n        return(getBooks, authors[author].fullName, authors[author].email);\n    }\n\n    function getBookByTitle(string _title) external view returns (address author, string bookHash, string title, string thumbHash) {\n        for (uint i = 0; i < books.length; i++) {\n         if (keccak256(_title) == keccak256(books[i].title)) return (books[i].authorAddress, books[i].bookHash, books[i].title, books[i].thumbHash);\n        }\n    }\n\n    function getBookByHash(string _bookHash) external view returns (string bookHash, string title, address author, bytes32 IPPR) {\n        for (uint i = 0; i < books.length; i++) {\n         if (keccak256(_bookHash) == keccak256(books[i].bookHash)) return (books[i].bookHash, books[i].title, books[i].authorAddress, books[i].IPPR);\n        }\n    }\n}\n",
  "sourcePath": "/home/altstreet/Documents/ethreader/contracts/ipfs.sol",
  "compiler": {
    "name": "solc",
    "version": "0.4.19+commit.c4cbbb05.Emscripten.clang"
  },
  "schemaVersion": "2.0.0",
  "updatedAt": "2018-03-26T14:53:15.836Z"
}